:020000040800F2
:10000000A80500209D010008A5010008A70100081F
:10001000A9010008AB010008AD01000800000000C4
:10002000000000000000000000000000AF01000818
:10003000B101000800000000B3010008B50100088C
:10004000B7010008B7010008B7010008B7010008B0
:10005000B7010008B7010008B7010008B7010008A0
:10006000B7010008B7010008B7010008B701000890
:10007000B7010008B70100080D350008B7010008F6
:10008000B7010008B7010008B7010008B701000870
:10009000B7010008B7010008B7010008B701000860
:1000A000B7010008B7010008B7010008B701000850
:1000B000C7080008B7010008B7010008B701000829
:1000C000B7010008B7010008B7010008B701000830
:1000D000B701000893340008B7010008B701000811
:1000E000B7010008B7010008B7010008B701000810
:1000F000B7010008B7010008B7010008B701000800
:10010000000000000000000000000000B70100082F
:10011000B7010008B7010008B7010008B7010008DF
:10012000B7010008B7010008B7010008B7010008CF
:10013000B7010008B701000800000000000000003F
:10014000B7010008B7010008B7010008000000006F
:10015000000000000000000000000000000000009F
:100160000000000000000000B7010008B70100080F
:10017000B7010008000000000000000000000000BF
:1001800000000000B7010008DFF80CD003F0FCF914
:10019000004800470F070008A805002006488047D0
:1001A00006480047FEE7FEE7FEE7FEE7FEE7FEE75C
:1001B000FEE7FEE7FEE7FEE7A32900088901000845
:1001C0000EB50121480502F0EDF90121084602F0C3
:1001D00003FA684600F05BFF4FF4E150ADF8000011
:1001E000012001906946800700F017FF01221146A7
:1001F000900701F038FC0121880700F0A9FF1C20BE
:100200000121814042094FF0E02303EB8202C2F852
:10021000001100BF0EBD70B50124FE488578C0797D
:10022000042818D1FC48006810B90020FB49086078
:10023000F848007A0006F749497A40EA0140F8494F
:100240000860F5480068401CF3490860F3480068FE
:10025000401CF2490860EF48C07920BBEE480068B6
:10026000012806D102F086FCEB480068401CEA49F0
:100270000860E8488079E749497940EA0120B0F50B
:10028000804F10DBE3494979E54A126842EA0121CF
:10029000E04A927941EA020002F02DFDDF48006851
:1002A000401CDE490860DB48C07901280AD102F011
:1002B0006CFC0020D84908600124D8480068401C24
:1002C000D6490860012C1BD1D348006850B9D348E7
:1002D000006838B1D1480088000ACE494871CF483B
:1002E0000078887102F03FFD8020CA4908704D7087
:1002F000CC4840798870AA204877012003F0A9F8FB
:1003000070BD10B5002402F0D5FE1020C14908715F
:100310000520487100208871C871C34908600DE04C
:10032000C048C1490968415CBA4ABF480068083002
:100330001154BD480068401CBB490860BA480068B9
:100340001028EDDB0020B34908760846807A00F0DB
:1003500080004010497A01F0800140EAA100AD49D7
:10036000097A01F0800140EAE100AA49C97901F067
:10037000800140EA2110A749897901F0800140EA13
:100380006110A449497901F0800140EAA110A14916
:10039000097940EAD1109F4948760846407C00F030
:1003A00080004010097C01F0800140EAA1009949D9
:1003B000C97B01F0800140EAE1009649897B01F0A8
:1003C000800140EA21109349497B01F0800140EA15
:1003D00061109049097B01F0800140EAA1108D492C
:1003E000C97A40EAD1108B4988760846007E00F031
:1003F00080004010C97D01F0800140EAA1008549DC
:10040000897D01F0800140EAE1008249497D01F0E7
:10041000800140EA21107F49097D01F0800140EA16
:1004200061107C49C97C01F0800140EAA110794942
:10043000897C40EAD1107749C87600207A49086063
:1004400010E07449784800680830085C00F07F01CB
:10045000704A754800680830115473480068401CA1
:1004600071490860704800681828EADB04206E496A
:10047000086009E067486C490968405C04446A48C0
:100480000068401C68490860674800681C28F1DB68
:10049000E44304F07F005F49087710BD70B5002485
:1004A0000420614908600AE05A485F490968405CD5
:1004B0002044C4B25C480068401C5B4908605A484C
:1004C00000681C28F0DBE043C4B204F07F0451480C
:1004D000007FA0427DD102F005FD4E484078002803
:1004E0007CD14C488078FF2878D04A48C0780128D1
:1004F00074D14C480078FF2807D14A484078FF283B
:1005000003D148488078FF2811D0464800784149F7
:10051000097A884262D1434840783E49497A884204
:100520005CD1404880783B49897A884256D1394825
:1005300085783C480078FF2811D13A484078FF2858
:100540000DD138488078FF2809D13248007A3549E2
:1005500008703048407A48702E48807A88702D485C
:10056000C07A3049C8702B48007B08712948407B0D
:1005700048712848807B88712648C07BC87125480F
:10058000007C08722348407C48722248807C887234
:100590002048C07CC8721F48007D08731D48407DFC
:1005A00048731C48807D88731A48C07DC87302F068
:1005B000C2FD8020174908704D701A484079887034
:1005C0000120C870FFF79DFEAA201249487701203C
:1005D00001E09BE002E002F03CFF00BF0D484078E4
:1005E00010494979884259D10A488078FF2855D066
:1005F0000848C078012851D1064885780948007814
:100600000449087207484078487206488078887222
:1006100004480BE0780000200800002014000020AF
:100620000C0000209600002010000020C078C87246
:10063000AC4800790873AB4840794873A948807981
:100640008873A848C079C873A648007A0874A5487A
:10065000407A4874A348807A8874A248C07AC874E3
:10066000A048007B08759F48407B48759D48807B6B
:1006700088759C48C07BC875802008700846457006
:100680009848407988700120C870FFF73AFEAA2088
:1006900095494877012002F0DCFE00BF924840787F
:1006A0009049497988421DD18F488078FF2819D018
:1006B0008D48C078032815D18B488578FFF721FE37
:1006C00080208949087008464570864840798870BE
:1006D0000320C870AA204877012002F0BAFE02F079
:1006E000F1F900BF804840787E49497988420DD1B0
:1006F0007D488078FF2809D07B48C078022803D045
:100700007948C078122801D1FFF785FD70BD02F04D
:1007100048F902F0CFFC4FF4164002F0D3FD7148C7
:10072000C07A012803D14FF4E13002F0CBFD6D48CF
:10073000C07A022802D16D4802F0C4FD02F047FEE3
:10074000FFF73EFD00214FF0006000F0B3FB0120F9
:1007500067490860B6E000246548006842F21071FD
:10076000884204DD02F0AEF900206149086061486A
:10077000006861490968441A002C01DA04F58074A4
:10078000002C7DD05D48006838B15C480068401C92
:100790005A49086001205A490860584800680228F0
:1007A00005D1584854490968405C4F49487053483E
:1007B0000068032805D153484F490968405C4A49FD
:1007C00088704E480068042805D14E484A49096897
:1007D000405C4549C8704948006804280CDD47481A
:1007E00000681A2808DA474843490968415C4348C9
:1007F0000068401E3C4A1154404800681A2808D13D
:1008000040483D490968415C3C480068401E364A02
:1008100011543A4800681B2808D13A4836490968FB
:10082000415C36480068401E2F4A11543348006826
:100830001C2808D1334830490968415C2F480068BA
:10084000401E294A11542D4800681D2808D12D4802
:1008500029490968415C29480068401E224A115410
:10086000264800681E280FD1264823490968405CA5
:10087000AA2809D1002022490860FFF70FFE00E0F6
:100880001FE000201A4908601E481B490968405CA7
:10089000802802D10120194908601A4816490968C0
:1008A000405CAA2802D10020144908601249096856
:1008B000481CC11700EB11610912A0EB01210E4A7F
:1008C000116000BF47E710B50121880701F0F7F874
:1008D00007480068002804DD05480068401C0449FA
:1008E000086010BD960000207800002060E316002C
:1008F000180000206C000020700000200000002084
:1009000004000020A600002010B50446F9488442E7
:1009100009D10121880301F079FE00214FF48040C4
:1009200001F074FE32E0F448844209D10121480408
:1009300001F079FE00214FF4003001F074FE25E053
:10094000EE48844209D10121880401F06CFE0021A7
:100950004FF4802001F067FE18E0E948844209D195
:100960000121C80401F05FFE00214FF4002001F0D6
:100970005AFE0BE0E348844208D10121080501F04A
:1009800052FE00214FF4801001F04DFE10BD2DE904
:10099000F04190B004460D460027B8460026206876
:1009A00020F001002060666826F44056A8680643DF
:1009B0006660266841F20C608643E968686808430F
:1009C0002969084306432660A66826F440766869CC
:1009D0000643A66001A801F03CFBC648844202D150
:1009E000DDF82C8013E0C448844202D1DDF8308069
:1009F0000DE0C248844202D1DDF8348007E0C048EF
:100A0000844202D1DDF8388001E0DDF83C802068C6
:100A100010F4004F0CD04FEA48002968B0FBF1F702
:100A20004FEA48002968B0FBF1F201FB120607E02B
:100A30002868B8FBF0F72868B8FBF0F100FB1186D6
:100A40002868B6EB500F00D37F1C206810F4004FCD
:100A500007D0C7F342064FF6F07107EA010040EAFB
:100A60000607A78110B0BDE8F0814FF41651016070
:100A7000002141608160C1600C2101610021416160
:100A8000704710B50022426822F47062D1E9003448
:100A900023438C682343CC6823431A43426010BD30
:100AA0000021016041608160C160704721B102682E
:100AB00042F00102026003E0026822F001020260DB
:100AC00070471AB103680B43036002E003688B436D
:100AD0000360704721B1026842F40042026003E003
:100AE000026822F400420260704721B1826842F439
:100AF0000062826003E0826822F4006282607047D4
:100B000021B1426842F40022426003E0426822F4CC
:100B100000224260704721B1426842F48022426064
:100B200003E0426822F48022426070471AB14368B1
:100B30000B43436002E043688B434360704721B13D
:100B4000426842F40042426003E0426822F40042FC
:100B50004260704721B1426842F40002426003E003
:100B6000426822F4000242607047426902F07F420C
:100B7000426142690A4342617047028A02F47F423D
:100B80000282028A0A430282704721B1026842F05F
:100B90000202026003E0026822F002020260704773
:100BA000826822F44012826082680A438260704741
:100BB00021B1426842F48012426003E0426822F4AC
:100BC000801242607047426822F4C002426042686C
:100BD0000A4342607047C1F308020285704701462C
:100BE000888CC0F308007047426822F07F42426060
:100BF000426842EA01624260704721B1026842F4F1
:100C00000052026003E0026822F400520260704762
:100C1000026822F40062026002680A4302607047C0
:100C2000426822F01002426042680A434260704704
:100C3000426822F02002426042680A4342607047E4
:100C400021B1426842F48042426003E0426822F4EB
:100C500080424260704721B1826842F0080282609F
:100C600003E0826822F0080282607047028AD2B2F2
:100C70000282028A42EA01220282704721B182681E
:100C800042F02002826003E0826822F0200282604B
:100C9000704721B1826842F01002826003E08268EE
:100CA00022F0100282607047826822F46022826023
:100CB000826842EA414282607047426922F07F4284
:100CC0004261426942EA016242617047826822F0F1
:100CD0000402826082680A438260704721B18268A0
:100CE00042F00202826003E0826822F00202826027
:100CF00070470000003801400044004000480040B8
:100D0000004C00400050004021B1826842F4804213
:100D1000826003E0826822F48042826070478268C9
:100D200022F40042826082680A438260704702684F
:100D300022F078720260026842EA41520260704713
:100D4000026822F4F8120260026842EA014202607C
:100D500070471AB183680B43836002E083688B435A
:100D600083607047826822F40052826082680A437E
:100D700082607047F0B5034600240026002500205D
:100D80001846C1F30724CEB2012707FA06F5022C54
:100D900001D1001D02E0032C00D108301AB1076810
:100DA0002F43076002E00768AF430760F0BD1AB148
:100DB000038B0B43038302E0038B8B430383704756
:100DC000826822F48052826082680A43826070479F
:100DD00002460020D3690B4201D0012000E0002030
:100DE00070470162704770B502460B46002400212F
:100DF00000250020C3F30725D9B2012606FA01F128
:100E0000012D02D11668314006E0022D02D156684C
:100E1000314001E0966831401C0C012606FA04F4CA
:100E2000D669344011B10CB1012000E0002070BD42
:100E300010B5002200230A0C012404FA02F3036215
:100E400010BD000031490143314A1160704770B54F
:100E5000002100230F22C4780CB32D4C246804F425
:100E6000E064C4F5E064210AC1F10403CA40447897
:100E700004FA03F18478144021430901254C0678D3
:100E8000A155047804F01F050124AC4005786D11CC
:100E90004FF0E02606EB8505C5F8004109E004782F
:100EA00004F01F050124AC401B4D0678761145F86F
:100EB000264070BD194A0A400243154B1B1F1A6099
:100EC000704739B1124A121D12680243104B1B1DA4
:100ED0001A6006E00E4A121D126882430C4B1B1D5D
:100EE0001A607047042808D14FF0E021096941F0E9
:100EF00004014FF0E022116107E04FF0E0210969A1
:100F000021F004014FF0E022116170470000FA0562
:100F10000CED00E000E400E080E100E080FFFF1F56
:100F200010B50446FD48844208D10121C01401F0E7
:100F30006DFB0021E01401F069FB6DE0B4F1804F1E
:100F400008D10121084601F06EFB0021012001F0CB
:100F50006AFB61E0F248844208D10121022001F0DD
:100F600062FB0021022001F05EFB55E0ED48844267
:100F700008D10121042001F056FB0021042001F0DA
:100F800052FB49E0E848844208D10121102001F0D9
:100F90004AFB0021102001F046FB3DE0E34884427B
:100FA00008D10121202001F03EFB0021202001F08A
:100FB0003AFB31E0DE48844208D10121401401F0BF
:100FC00025FB0021601401F021FB25E0D948844273
:100FD00009D10121080401F019FB00214FF48030F0
:100FE00001F014FB18E0D448844209D101214804DF
:100FF00001F00CFB00214FF4003001F007FB0BE087
:10100000CE48844208D10121880401F0FFFA002172
:101010004FF4802001F0FAFA10BD00220288BF4B85
:1010200098420BD0C24B984208D0B0F1804F05D007
:10103000BB4B984202D0BB4B984204D14FF68F7302
:101040001A404B881A43B84B984207D0B74B984286
:1010500004D04FF6FF431A400B891A4302804B68B5
:10106000C3620B880385AD4B98420BD0B04B9842BE
:1010700008D0B04B984205D0AF4B984202D0AF4B4E
:10108000984201D18B7A03860123436170474FF068
:10109000FF314160002101800181418081727047F0
:1010A0000185426170470A46002101884FF68F731F
:1010B000194011430180704741627047C162704717
:1010C0000146486A70470146088D704721B1028881
:1010D00042F00202028004E002884FF6FD731A40DB
:1010E0000280704721B1028842F00402028004E0CD
:1010F00002884FF6FB731A400280704721B10288C4
:1011000042F40062028004E002884FF2FF731A404A
:101110000280704721B1028842F08002028004E020
:1011200002884FF67F731A400280704702884FF69C
:10113000F7731A40028002880A43028070470288CF
:101140004FF6FF431A40028002880A43028070472C
:1011500021B1028842F00102028004E002884FF6C9
:10116000FE731A400280704730B50024002200232D
:10117000056A25F001050562026A43688469704DBD
:101180002C4024F003040D682C4322F002028D89C8
:101190002A438D882A43614DA8420BD0644DA84252
:1011A00008D0644DA84205D0634DA84202D0634DDB
:1011B000A8420FD122F00802CD892A4322F004026E
:1011C000CD882A4323F4807323F400730D8A2B43C4
:1011D0004D8A2B43436084618D684563026230BD54
:1011E00030B5002400220023056A25F010050562B1
:1011F000026A43688469534D2C4024F440740D689E
:1012000044EA052422F020028D8942EA05128D88E5
:1012100042EA0512414DA84202D0454DA84213D1E1
:1012200022F08002CD8942EA051222F04002CD88E8
:1012300042EA051223F4806323F400630D8A43EA33
:1012400085034D8A43EA8503436084618D68856325
:10125000026230BD30B5002400220023056A25F467
:1012600080750562026A4368C46924F0700424F042
:1012700003040D682C4322F400728D8942EA052292
:101280008D8842EA0522254DA84202D0284DA84269
:1012900013D122F40062CD8942EA052222F4806251
:1012A000CD8842EA052223F4805323F400530D8AAB
:1012B00043EA05134D8A43EA05134360C4618D6810
:1012C000C563026230BD30B5002200230024056AE8
:1012D00025F480550562036A4468C26922F4E0423D
:1012E00022F440720D6842EA052223F400538D89EE
:1012F00043EA05338D8843EA0533084DA84202D0FE
:101300000B4DA84204D124F480440D8A44EA85148C
:101310004460C2618D680564036230BD002C0140E9
:10132000000400400008004000100040001400408D
:1013300000340140004001400044014000480140A9
:101340008FFFFEFFFF8FFFFE30B500230022002439
:10135000056A25F480350562026A4468436D23F00E
:1013600070030D682B4322F400328D8942EA054256
:101370008D8842EA0542FE4DA84202D0FD4DA842AA
:1013800004D124F480340D8A44EA05444460436562
:101390008D688565026230BD70B50023002200248F
:1013A000056A25F480150562026A4468436D23F4DA
:1013B000E0430D6843EA052322F400128D8942EAD6
:1013C00005528D8842EA0552E94DA84202D0E94D06
:1013D000A84207D124F400340D8A4FF6FF7606EABE
:1013E00085452C43446043658D68C565026270BDC8
:1013F00021B1826D42F00052826503E0826D22F0DD
:1014000000528265704721B1826D42F08042826550
:1014100003E0826D22F080428265704721B1826DC7
:1014200042F00042826503E0826D22F00042826554
:101430007047002101608180C18081608181C1810C
:1014400001824182704770B503460020002418468F
:10145000183001258D40ACB21D6AE643B6B2354066
:101460001D6209B1082909D100EB61000568C24E6F
:10147000354005600568154305600DE00D1F00EB64
:1014800055000568BD4E3540056005684FF6FF768E
:1014900006EA02263543056070BD416370478163EB
:1014A0007047C16370470164704781657047C165CB
:1014B00070470A4600218169AF4B19401143816191
:1014C00070470A4600218169AC4B194041EA02216C
:1014D000816170470A460021C16921F07001114302
:1014E000C16170470A460021C16921F4E04141EA27
:1014F0000221C16170470A460021416D21F070014F
:101500001143416570470A460021416D21F4E041D5
:1015100041EA0221416570470A460021816921F0B4
:1015200008011143816170470A460021816921F455
:10153000006141EA0221816170470A460021C169C8
:1015400021F008011143C16170470A460021C169B9
:1015500021F4006141EA0221C16170470A4600217D
:10156000416D21F008011143416570470A46002191
:10157000416D21F4006141EA0221416570470A464C
:101580000021816921F004011143816170470A46FD
:101590000021816921F4806141EA02218161704763
:1015A0000A460021C16921F004011143C16170475D
:1015B0000A460021C16921F4806141EA0221C1612A
:1015C00070470A460021816921F080011143816141
:1015D00070470A460021816921F4004141EA022155
:1015E000816170470A460021C16921F080011143E1
:1015F000C16170470A460021C16921F4004141EAF6
:101600000221C16170470A460021416D21F080012D
:101610001143416570470A460021416D21F40041A4
:1016200041EA02214165704782684FF6F7731A401C
:10163000826082680A43826070470A460021016A1C
:1016400021F002011143016270470A460021016A3C
:1016500021F008011143016270470A460021016A26
:1016600021F0200141EA0211016270470A4600217F
:10167000016A21F0800141EA0211016270470A46C5
:101680000021016A21F4007141EA022101627047E0
:101690000A460021016A21F4006141EA0221016247
:1016A00070470A460021016A21F4005141EA0231E3
:1016B000016270470A460021016A21F4003141EAC3
:1016C0000241016270470A460021016A21F40011BB
:1016D00041EA02510162704730B50023012404FA47
:1016E00001F3046A9C430462046A02FA01F52C4384
:1016F000046230BD30B50023042404FA01F3046A07
:101700009C430462046A02FA01F52C43046230BD72
:10171000C2694FF2FF331A40C261C2694FF6FF73CC
:1017200003EA01231A43C2617047F0B50C4615461F
:10173000002100220026076A4EF6FF7C07EA0C070C
:101740000762C769B9B2076ABAB24FF6FF7707EA0C
:10175000043640F6FF4739404FF6FF7707EA052782
:1017600039434FF6FF7707EA0337394308E00000B3
:10177000002C0140003401408FFFFEFFFF8FFFFE71
:1017800045F6FF773A4046F480573A43C16102621A
:10179000F0BDC2694FF6F3731A40C261C2690A43D1
:1017A000C2617047F0B50C461546002100220026A4
:1017B000076A4FF6FF6C07EA0C070762C769B9B200
:1017C000076ABAB24FF6FF7707EA04264FF60C779E
:1017D00039404FF6FF7707EA03172F4339434FF29B
:1017E000FF573A4046F480773A43C1610262F0BD48
:1017F000826922F440628261826942EA0122826146
:101800007047F0B50C461546002100220026076AF5
:101810004FF6EF7C07EA0C0707628169026A4FF610
:10182000FF7707EA041621F4734141EA033141EAE4
:1018300005214FF65F773A4046F010073A43816141
:101840000262F0BD826922F00C02826182690A4361
:101850008261704770B50C46154600210022066A69
:1018600026F0010606628169026A21F0F30145EA69
:101870000316314322F00A0244F00106324381612B
:10188000026270BD70B505460C46208850B92389A8
:10189000A28861882846FFF7DDFFE1882846FFF728
:1018A000D1FF25E0208804280AD12389A2886188F5
:1018B0002846FFF7A6FFE1882846FFF799FF17E0C3
:1018C000208808280AD12389A28861882846FFF742
:1018D00069FFE1882846FFF75CFF09E02389A288B9
:1018E00061882846FFF721FFE1882846FFF710FFAF
:1018F00070BD002101804180012181800021C180D3
:10190000018170472DE9F04105460C46002601276C
:10191000608808B9022600E00026A088012801D1CD
:10192000022700E001272088A0B92389A2886188C6
:101930002846FFF78FFFE1882846FFF783FF2389BA
:101940003A4631462846FFF75CFFE1882846FFF714
:101950004FFF13E02389A28861882846FFF751FFD3
:10196000E1882846FFF744FF23893A463146284656
:10197000FFF770FFE1882846FFF764FFBDE8F081BC
:101980000146486B70470146886B70470146C86B3B
:1019900070470146086C70470A884B881A438B8849
:1019A0001A43CB881A430B891A434B891A438B89F4
:1019B0001A434264704710B5436C23F472234364A6
:1019C000436C41EA02442343436410BD10B5436CA9
:1019D00023F03C734364436C41EA02542343436461
:1019E00010BD21B1426C42F48052426403E0426C6B
:1019F00022F480524264704721B1426C42F08072FE
:101A0000426403E0426C22F080724264704700211D
:101A1000018041808180C180018141818181704745
:101A200021B1426C42F40042426403E0426CC2F3D2
:101A30000E024264704721B1426842F004024260E3
:101A400004E042684FF6FB731A404260704721B1D0
:101A5000426842F00102426004E042684FF6FE73C1
:101A60001A404260704710B51AB1C3680B43C36097
:101A700004E0C368CC43A4B22340C36010BD4161FD
:101A800070470246002013690B4201D0012000E09C
:101A900000207047CA4392B20261704730B50246D7
:101AA000002000230024156905EA0103D56805EA32
:101AB000010413B10CB1012000E0002030BDCA4385
:101AC00092B20261704741EA0203A0F848307047C1
:101AD00010B51AB1C3680B43C36004E0C368CC43BC
:101AE000A4B22340C36010BD21B1426842F0080295
:101AF000426004E042684FF6F7731A404260704754
:101B000081684FF6F8721140816070470A460021E3
:101B1000836899B24FF68F73194011438160704703
:101B200030B504460D4629462046FFF7EFFFA06872
:101B300040F00700A06030BD2DE9F04104460D469D
:101B400016461F46602D06D13B46012231462046EF
:101B5000FFF757FE05E03B46012231462046FFF7DE
:101B600079FE29462046FFF7D1FFA06840F0070024
:101B7000A060BDE8F08130B50C4600218568A9B2AF
:101B8000C9B24FF6FF7505EA0325154325432943DE
:101B9000816030BD2DE9F04105460E461746984656
:101BA000002443463A4631462846FFF7E4FFA8683A
:101BB00084B24FF6F870044044F007044FF68F707B
:101BC000044044F07004AC60BDE8F081F0B5044618
:101BD0000D4616461F463B46324629462046FFF72D
:101BE000CAFFA06840F48040A060F0BD42684FF694
:101BF0008F731A40426042680A43426070474268ED
:101C000022F47002426042680A4342607047826870
:101C1000214B1A40826082680A4382607047826862
:101C20004FF67F731A40826082680A438260704771
:101C3000F0B50C4615461E46002100220023876899
:101C4000B9B28769BAB2076ABBB24FF6F8773940C2
:101C500021434FF6FC473A4040F201173A434FF612
:101C6000DD773B404FF6FF7707EA06172F433B43EC
:101C7000816082610362F0BD21B1426842F080025E
:101C8000426004E042684FF67F731A40426070473A
:101C9000A0F8501070470000F8FFFEFF10B5044692
:101CA000B4F1904F09D10121480400F0A2FC0021B9
:101CB0004FF4003000F09DFC3CE07048844208D1B5
:101CC0000121000200F095FC0021200200F091FCAF
:101CD00030E06B48844208D10121000200F089FC09
:101CE0000021200200F085FC24E06648844209D1EE
:101CF0000121080500F07DFC00214FF4801000F068
:101D000078FC17E06048844208D10121400200F0CD
:101D100070FC0021600200F06CFC0BE05B48844228
:101D200008D10121880500F064FC00214FF48000F7
:101D300000F05FFC10BDF0B50A460021002300242E
:101D400000BF3DE0012505FA01F3156805EA03042B
:101D50009C4234D11579012D02D01579022D16D16E
:101D600085684F000326BE40B543856055794E0017
:101D7000B540866835438560868801258D40AE4331
:101D80008680868895798D40ADB22E438680056821
:101D90004F000326BE40B543056015794E00B5409F
:101DA000066835430560C5684F000326BE40B5434D
:101DB000C560D5794E00B540C6683543C560491C3D
:101DC0001029BFD3F0BD4FF6FF71016000210171F2
:101DD0000121417100218171C17170474FF480323E
:101DE0000A43C261C161C261C269C26970470246E9
:101DF0000020138A0B4201D0012000E00020704730
:101E00000146088A704702460020938A0B4201D09F
:101E1000012000E0002070470146888A70478161F8
:101E20007047018570470AB1816100E00185704704
:101E300081827047F0B5002300244D07ED0E02FAB1
:101E400005F3CE1000F1200555F826504E07F70E89
:101E50000F26BE40B543CF1000F1200646F82750AC
:101E6000CE1000F1200555F8265045EA0304CE10A7
:101E700000F1200545F82640F0BD000000040048B0
:101E800000080048000C00480010004800140048FA
:101E9000FD48006840F00100FB49086008464068C2
:101EA000FA490840F849486008460068F84908407F
:101EB000F54908600846006820F48020086008465C
:101EC000406820F4FE0048600846C06A6FF30D00C9
:101ED000C8620846006BEF490840EB4908630020E0
:101EE000886070470021E84A9170114688707047F9
:101EF00010B50246002100230020511111B9E24C17
:101F000023680BE0012902D1DF4C236A06E0042993
:101F100002D1DD4C636801E0DB4C636A02F01F0113
:101F200001248C401C4201D0012000E0002010BDA3
:101F300038B5002000900024002500BF1120FFF7D5
:101F4000D7FF05460098401C00900098B0F5A06FA0
:101F500001D0002DF2D01120FFF7CAFF08B10124F3
:101F600000E00024204638BD01460020C64A106823
:101F700020F0F80040EAC10010607047C6490860D0
:101F80007047C149096A21F00101BF4A1162114637
:101F9000096A21F0040111621146096A01431162C4
:101FA0007047B949096A21F01801B74A1162114610
:101FB000096A014311627047B84908607047B24A24
:101FC000526822F47412B04B5A601A46526840EAC2
:101FD00001031A43AC4B5A607047AF49086670471B
:101FE00001460020A84AD06A20F00F000843D062C2
:101FF0007047A949C8647047A349C8717047014632
:102000000020A14A506820F0030008435060704748
:102010009D48406800F00C007047014600209A4A35
:10202000506820F0F00008435060704701460020DF
:10203000954A506820F4E0600843506070470146BC
:102040000020914A506820F4605040EAC10050607E
:1020500070472DE9F0410021002400278C46002321
:10206000002200250026DFF82082D8F8048008F03E
:102070000C0121B1042907D0082930D109E0DFF88B
:102080002082C0F800802FE0DFF81482C0F80080C2
:102090002AE0DFF8F481D8F8048008F47014DFF83F
:1020A000E881D8F8048008F480374FF0020808EB84
:1020B000944427B9DFF8EC8104FB08F20DE0DFF867
:1020C000C881D8F82C8008F00F0808F1010CDFF85F
:1020D000D081B8FBFCF808FB04F2026004E0DFF8F2
:1020E000C081C0F8008000BF00BFDFF89C81D8F835
:1020F000048008F0F0010909DFF8AC8118F80160EC
:10210000D0F8008028FA06F8C0F80480DFF878815B
:10211000D8F8048008F4E061090ADFF88C8118F827
:102120000130D0F8048028FA03F8C0F80880DFF8FE
:102130005881D8F8048008F46051C90ADFF8688132
:1021400018F80150D0F8048028FA05F8C0F80C807F
:10215000DFF83481D8F82C8008F4F8710909DFF829
:102160004C8138F8113013F0100F04D0B2FBF3F8A3
:10217000C0F8108003E0D0F80080C0F81080DFF8CD
:102180000881D8F82C8008F47851490ADFF81C81BE
:1021900038F8113013F0100F04D0B2FBF3F8C0F888
:1021A000148003E0D0F80080C0F81480DFF8D880F5
:1021B000D8F8308008F01008B8F1100F04D0DFF81C
:1021C000E080C0F8188003E0D0F80080C0F81880E4
:1021D000DFF8B480D8F8308008F02008B8F1200F7C
:1021E00004D0DFF8BC80C0F81C8003E0D0F8008089
:1021F000C0F81C80DFF89080D8F8308008F4807830
:10220000B8F5807F0AD1D0F80080904506D1B5425C
:1022100004D14FEA4208C0F8208003E0D0F80C80D7
:10222000C0F82080DFF86080D8F8308008F40078AB
:10223000B8F5007F0AD1D0F80080904506D1B542AC
:1022400004D14FEA4208C0F8248003E0D0F80C80A3
:10225000C0F82480DFF83080D8F8308018F0030F01
:1022600004D1D0F80C80C0F828803CE0DFF818805A
:10227000D8F8308008F00308B8F1010F18D1D0F871
:102280000080C0F828802EE00010024000C0FFF857
:10229000FFFFF6FECCFC000F0000424280044242E9
:1022A00000127A0000093D002400002034000020C4
:1022B000DFF8D083D8F8308008F00308B8F1020FB7
:1022C00004D14FF40048C0F828800CE0DFF8B48354
:1022D000D8F8308008F00308B8F1030F03D1DFF815
:1022E000A883C0F82880DFF89C83D8F8308018F4E1
:1022F000403F04D1D0F80880C0F82C8028E0DFF8F7
:102300008483D8F8308008F44038B8F5803F04D191
:10231000D0F80080C0F82C801AE0DFF86883D8F885
:10232000308008F44038B8F5003F04D14FF400483D
:10233000C0F82C800CE0DFF84C83D8F8308008F42B
:102340004038B8F5403F03D1DFF83C83C0F82C801B
:10235000DFF83083D8F8308018F4402F04D1D0F85B
:102360000880C0F8308028E0DFF81883D8F8308083
:1023700008F44028B8F5802F04D1D0F80080C0F8C8
:1023800030801AE0DFF8FC82D8F8308008F440286A
:10239000B8F5002F04D14FF40048C0F830800CE0AD
:1023A000DFF8E082D8F8308008F44028B8F5402FF4
:1023B00003D1DFF8D482C0F83080DFF8C882D8F8C3
:1023C000308018F4401F04D1D0F80880C0F8348061
:1023D00028E0DFF8B082D8F8308008F44018B8F56B
:1023E000801F04D1D0F80080C0F834801AE0DFF8F4
:1023F0009482D8F8308008F44018B8F5001F04D152
:102400004FF40048C0F834800CE0DFF87882D8F848
:10241000308008F44018B8F5401F03D1DFF8688217
:10242000C0F83480DFF85C82D8F8308018F4400FB0
:1024300004D1D0F80880C0F8388028E0DFF8448262
:10244000D8F8308008F44008B8F5800F04D1D0F8EF
:102450000080C0F838801AE0DFF82882D8F8308091
:1024600008F44008B8F5000F04D14FF40048C0F854
:1024700038800CE0DFF80C82D8F8308008F440088F
:10248000B8F5400F03D1DFF80082C0F83880BDE80E
:10249000F0810021010F31B17A4AD26A22F47852D8
:1024A000784BDA6205E0774AD26A22F4F872754B0B
:1024B000DA62744AD26A0243724BDA6270470021D0
:1024C000010F31B16F4A126B22F020026D4B1A637B
:1024D00005E06C4A126B22F010026A4B1A63694ADB
:1024E000126B0243674B1A6370470021010F31B131
:1024F000644A126B22F40072624B1A6305E0614A6F
:10250000126B22F480725F4B1A635E4A126B0243B5
:102510005C4B1A6370470021010F062927D2DFE8C0
:1025200001F026030A11181F564A126B22F003020B
:10253000544B1A631CE0534A126B22F44032514B45
:102540001A6315E04F4A126B22F440224D4B1A6376
:102550000EE04C4A126B22F440124A4B1A6307E019
:10256000484A126B22F44002464B1A6300E000BF57
:1025700000BF444A126B0243424B1A6370474349FF
:10258000086070473F49096A01433E4A116270473B
:102590003F49086070473F49086070473D49091D41
:1025A0000860704729B1374A52690243354B5A6176
:1025B00004E0344A52698243324B5A61704729B170
:1025C000304A926902432F4B9A6104E02D4A926986
:1025D00082432C4B9A61704729B12A4AD26902433F
:1025E000284BDA6104E0274AD2698243254BDA613D
:1025F000704729B1234A926A0243224B9A6204E04F
:10260000204A926A82431F4B9A62704729B11D4A41
:10261000D26802431B4BDA6004E01A4AD268824354
:10262000184BDA60704729B1164A12690243154BFC
:102630001A6104E0134A12698243124B1A6170470F
:1026400029B1104A527A02430E4B5A7204E00D4AE5
:10265000527A82430B4B5A7270470A48406A40F0E4
:10266000807008494862704701460020054A926818
:102670000A4201D0012000E0002070470149887221
:10268000704700000010024000127A00D800424259
:10269000DC0042423C04424201684FF6FE721140A7
:1026A00001600021016041608160C1608C49884205
:1026B00008D18B490839496841F00F01884A083A26
:1026C00051608AE086491431884208D1844908392A
:1026D000496841F0F001824A083A51607DE0804942
:1026E0002831884208D17E490839496841F470612F
:1026F0007B4A083A516070E079493C31884208D100
:1027000077490839496841F47041754A083A51607F
:1027100063E073495031884208D1714908394968EA
:1027200041F470216E4A083A516056E06C496431B8
:10273000884208D16A490839496841F47001684AF9
:10274000083A516049E066497831884208D16449C5
:102750000839496841F07061614A083A51603CE0CB
:102760006049884206D1011F096841F00F01021F2C
:10277000116032E05B491431884208D15949091F80
:10278000096841F0F001574A121F116025E05549D0
:102790002831884208D15349091F096841F4706102
:1027A000504A121F116018E04E493C31884208D14E
:1027B0004C49091F096841F470414A4A121F1160CF
:1027C0000BE048495031884207D14649091F096842
:1027D00041F47021434A121F1160704710B5002266
:1027E000026847F6F0739A430C6A8B6823430C69BE
:1027F00023434C6923438C692343CC6923434C6AAC
:1028000023438C6A23431A4302608B8943600B681D
:1028100083604B68C36010BD00210160416081602E
:102820008181016141618161C161016241628162B5
:10283000704721B1026842F00102026004E00268C0
:102840004FF6FE731A4002607047416070470146C0
:10285000486880B270471AB103680B43036002E016
:1028600003688B430360704701460020002211F08B
:10287000805F03D01B4B083B1A6802E0184B083BF3
:102880001A680A4201D0012000E00020704710F0D1
:10289000805F03D01349091F086002E0104908391E
:1028A0004860704701460020002211F0805F03D08D
:1028B0000C4B083B1A6802E0094B083B1A680A42B5
:1028C00001D0012000E00020704710F0805F03D0AD
:1028D0000449091F086002E001490839486070474F
:1028E00008000240080402400CB50020019000904E
:1028F0006A48006840F480306849086000BF674853
:10290000006800F4003000900198401C019000988D
:1029100018B90198B0F5A06FF1D16048006810F4C3
:10292000003F02D00120009001E0002000900098BC
:10293000012835D102205A49086058484068574953
:1029400048600846406848600846406840F4806037
:1029500048600846406820F47C104860084640689B
:1029600040F4E81048600846006840F08070086055
:1029700000BF4A48006810F0007FFAD0474840681E
:1029800020F00300454948600846406840F00200D6
:10299000486000BF4148406800F00C000828F9D1A9
:1029A0000CBD10B53F48006840F470003D49086018
:1029B0003A48006840F0010038490860084640681D
:1029C0003949084035494860084600683749084099
:1029D000324908600846006820F4802008600846F4
:1029E000406820F4FE0048600846C06A20F00F00EE
:1029F000C8620846006B2E49084028490863002039
:102A00008860FFF771FF4FF0006026498039086049
:102A100010BD30B500210020002200231F4C646847
:102A200004F00C0121B1042906D0082925D107E0C2
:102A3000204C214D2C6024E01E4C1F4D2C6020E0CA
:102A4000164C646804F47010144C646804F480320A
:102A5000022404EB904022B9184C4443164D2C60DC
:102A60000AE00E4CE46A04F00F04631C114CB4FB42
:102A7000F3F44443104D2C6003E00E4C0E4D2C60DB
:102A800000BF00BF054C6468C4F303140C4D295DFE
:102A9000094C2468CC40084D2C6030BD0010024029
:102AA0000020024088ED00E00CC07FF8FFFFF6FE3A
:102AB000CCFC00FF00127A005000002000093D000D
:102AC0005400002010B5F7480068F7490840B0F1FD
:102AD000005F4ED10020F549C8730021F448FFF78C
:102AE000A8FE00228021F348FEF733F900220221DC
:102AF000EF48FFF7B0FE002201218807FEF7B3FF81
:102B000000214FF08040FEF723FB1C200121814073
:102B1000E94A430942F8231000BF0022E749E5488B
:102B2000FEF728F90022E649E248FEF723F90021E2
:102B3000E048FDF7BBFF0022E049E248FEF71AF942
:102B40000022DF49DF48FEF715F90021DD48FDF7D7
:102B5000ADFFD4484068DC49086008460068DB499E
:102B60000860D049086880F3088800BFD74800682B
:102B7000804710BDD648006910F0800F04D0D548BA
:102B8000D3494860D44848607047D148006940F054
:102B90008000CF49086170470420CD49C96811F011
:102BA000010F01D001200EE0C949C96811F0100FD2
:102BB00001D0022007E0C649C96811F0040F01D016
:102BC000032000E00420704700B502460423FFF70D
:102BD000E3FF034603E0FFF7DFFF0346521E012B2E
:102BE00001D1002AF7D102B90523184600BD30B53E
:102BF000044604254FF43020FFF7E6FF0546042D78
:102C00001ED1B348C06810F0200F02D02020B04978
:102C1000C860AF48006940F00200AD49086108464D
:102C20004461006940F0400008614FF43020FFF734
:102C3000CBFF0546A648006920F00200A4490861C0
:102C4000284630BD78B506460C4604250020009085
:102C50004FF43020FFF7B8FF0546042D24D19C48DF
:102C6000006940F001009A49086134804FF4302037
:102C7000FFF7AAFF0546042D10D1B01C0090200CD0
:102C8000009908804FF43020FFF79EFF05469048DA
:102C9000006920F001008E49086105E08C48006958
:102CA00020F001008A490861284678BDF0B5044645
:102CB0000E461746002500BF15E056F8251020687F
:102CC000FFF7C0FF04280BD12068006856F82510D4
:102CD000884201D00220F0BD2068001D206001E084
:102CE0000120F8E76D1CBD4203D220687B49884271
:102CF000E3D90020EFE730B505460024082408E0BA
:102D0000281908384005400D02D12846FFF76FFF0B
:102D1000A41C162CF4DD6E48006940F001006C49DB
:102D20000861082416E000BF6948C06810F0010F70
:102D3000FAD16B48015D0246601C105C41EA00203C
:102D4000291921F8080C00BF6148C06810F0010F74
:102D5000FAD1A41C162CE6DD5D48006920F00100C4
:102D60005B49086130BD002000215D4A127902F103
:102D7000090003E000225A4B1A54401C1C28F9DBBE
:102D8000574A927A02F080025210554B5B7A03F058
:102D9000800342EAA302524B1B7A03F0800342EA0B
:102DA000E3024F4BDB7903F0800342EA23124C4BE2
:102DB0009B7903F0800342EA6312494B5B7903F08D
:102DC000800342EAA312464B1B7942EAD312444BDA
:102DD0005A761A46527C02F0800252101B7C03F095
:102DE000800342EAA3023E4BDB7B03F0800342EA0E
:102DF000E3023B4B9B7B03F0800342EA2312384BF8
:102E00005B7B03F0800342EA6312354B1B7B03F0CC
:102E1000800342EAA312324BDB7A42EAD312304BF0
:102E20009A761A46127E02F080025210DB7D03F081
:102E3000800342EAA3022A4B9B7D03F0800342EA0F
:102E4000E302274B5B7D03F0800342EA2312244B0D
:102E50001B7D03F0800342EA6312214BDB7C03F00D
:102E6000800342EAA3121E4B9B7C42EAD3121C4B06
:102E7000DA76042006E01A4A125C02F07F02184B50
:102E80001A54401C1828F6DD042003E0144A125C92
:102E90001144401C1C28F9DBC94301F07F02104B90
:102EA0001A777047004000080000FE2F96000020AF
:102EB000440002400038014080E100E005010500C7
:102EC0000601060000440040640000206800002065
:102ED0000020024023016745AB89EFCDFBFF0308CB
:102EE00078000020F248407E10F0010F05D0F04835
:102EF000007940F08000EE490871ED48407E10F006
:102F0000020F05D0EA48407940F08000E849487156
:102F1000E748407E10F0040F05D0E548807940F086
:102F20008000E3498871E248407E10F0080F05D028
:102F3000DF48C07940F08000DD49C871DC48407E40
:102F400010F0100F05D0DA48007A40F08000D84920
:102F50000872D748407E10F0200F05D0D448407A40
:102F600040F08000D2494872D148407E10F0400FB6
:102F700005D0CF48807A40F08000CD498872CC4897
:102F8000807E10F0010F05D0C948C07A40F0800063
:102F9000C749C872C648807E10F0020F05D0C448E9
:102FA000007B40F08000C2490873C148807E10F069
:102FB000040F05D0BE48407B40F08000BC494873F8
:102FC000BB48807E10F0080F05D0B948807B40F0E8
:102FD0008000B7498873B648807E10F0100F05D086
:102FE000B348C07B40F08000B149C873B048807ED0
:102FF00010F0200F05D0AE48007C40F08000AC49B6
:103000000874AB48807E10F0400F05D0A848407C83
:1030100040F08000A6494874A548C07E10F0010F1A
:1030200005D0A348807C40F08000A1498874A04866
:10303000C07E10F0020F05D09D48C07C40F080009B
:103040009B49C8749A48C07E10F0040F05D0984878
:10305000007D40F08000964908759548C07E10F0CC
:10306000080F05D09248407D40F080009049487597
:103070008F48C07E10F0100F05D08D48807D40F045
:1030800080008B4988758A48C07E10F0200F05D0DB
:103090008748C07D40F080008549C8758448C07E5F
:1030A00010F0400F05D08248007E40F0800080493B
:1030B000087670477F4800787F4908707D48401C3B
:1030C000007848707B48801C007888707948C01C64
:1030D0000078C8707748001D007808717548401D59
:1030E000007848717348801D007888717148C01D50
:1030F0000078C8716F480830007808726D48093050
:10310000007848726B480A300078887269480B3042
:103110000078C87267480C300078087365480D3035
:103120000078487363480E300078887361480F3028
:103130000078C873704700B5FFF71CFD5F48FFF7C4
:1031400056FD5F48006940F001005D49086100BF1D
:103150005B48C06810F0010FFAD157480078564913
:10316000497840EA01205349088000BF5448C068AC
:1031700010F0010FFAD100BF5148C06810F0010FE4
:10318000FAD14D4880784C49C97840EA0120494934
:10319000891C088000BF4A48C06810F0010FFAD1AE
:1031A00000BF4748C06810F0010FFAD142480079CB
:1031B0004149497940EA01203E49091D088000BF84
:1031C0003F48C06810F0010FFAD100BF3C48C0680A
:1031D00010F0010FFAD1384880793749C97940EAAF
:1031E00001203449891D088000BF3548C06810F0AF
:1031F000010FFAD100BF3248C06810F0010FFAD1B8
:103200002D48007A2C49497A40EA012029490831A1
:10321000088000BF2A48C06810F0010FFAD100BF33
:103220002748C06810F0010FFAD12348807A22495C
:10323000C97A40EA01201F490A31088000BF2048AE
:10324000C06810F0010FFAD100BF1D48C06810F02F
:10325000010FFAD11848007B1749497B40EA012049
:1032600014490C31088000BF1548C06810F0010FE8
:10327000FAD100BF1248C06810F0010FFAD10E4811
:10328000807B0D49C97B40EA01200A490E31088044
:1032900000BF0B48C06810F0010FFAD10848006960
:1032A00020F0010006490861FFF76FFC00BD000037
:1032B00078000020F03F0008960000200038000849
:1032C0000020024010B588B0044601214804FFF7F1
:1032D00069F901218803FFF772F901208DF81C00BC
:1032E00003208DF81D0000208DF81E004FF4807023
:1032F000069006A94FF09040FEF71DFD4FF4807137
:103300004FF09040FEF78DFD07220921C806FEF719
:1033100091FD07220A214FF09040FEF78BFD4FF4FC
:10332000C060069002208DF81C0000208DF81E0061
:1033300001208DF81F0003208DF81D0006A94FF015
:103340009040FEF7F8FC009400200190029003905A
:1033500005900C20049069468048FDF718FB252055
:1033600000F01F020121914042094FF0E02303EBDE
:103370008202C2F8001100BF01217848FDF796FBD8
:10338000012277497548FDF7F5FC08B010BD10B56E
:1033900004464FF480714FF09040FEF740FD00BFAF
:1033A0006E481C30006810F0800FF9D06B48283050
:1033B000048000BF69481C30006810F0400FF9D04D
:1033C0004FF480714FF09040FEF72BFD10BD00B51B
:1033D0008DB000208DF805008DF8060001208DF8D5
:1033E000070001210846FFF7DDF85E48FFF754F9B2
:1033F00002A8FFF711FA5948283002905A48039062
:10340000102004901E20ADF81400002006908020AB
:1034100007900020089009904FF400500B9002A9EB
:103420005048FFF7DBF9012280214C48FDF791FC61
:1034300001214C48FFF7FDF90E208DF8040001A88A
:10344000FDF705FD012202214648FFF704FA0DB001
:1034500000BD10B504460020444908604FF4807157
:103460004FF09040FEF7DBFC012280213B48FDF746
:1034700070FC1E213B48FFF7E8F901213948FFF7AE
:10348000D8F9012C04D100BF384800680028FBD0CF
:1034900010BD10B532493148FDF7A5FCA8B130493F
:1034A0002E48FDF7C5FC2D48FDF799FB3049314A00
:1034B000126888542F490968481CC11700EB116134
:1034C0000912A0EB01212B4A11602B492348FDF77B
:1034D0008AFC48B128492148FDF7AAFC4FF48071C5
:1034E0004FF09040FEF79DFC4FF440711B48FDF7F4
:1034F0009FFC22491948FDF79BFC21491748FDF71D
:1035000097FC20491548FDF793FC10BD10B54FF40A
:103510000050FFF7C7F9E0B14FF48050FFF7D5F93D
:1035200000211048FFF785F9002280210B48FDF7A4
:1035300010FC00BF09481C30006810F0400FF9D0A3
:103540004FF480714FF09040FEF76BFC012007496B
:1035500008604FF48050FFF7B8F910BD0038014003
:10356000050105004400024078000020740000209E
:10357000A60000206C0000200601060000030300E6
:103580000003020000030100064C074D06E0E0685E
:1035900040F0010394E8070098471034AC42F6D39A
:1035A000FCF7F6FDCC350008EC35000802E008C851
:1035B000121F08C1002AFAD170477047002001E0AD
:1035C00001C1121F002AFBD170470000EC35000832
:1035D0000000002078000000AC35000864360008C8
:1035E0007800002030050000BC3500080000000015
:1035F00000000000000000000000000000000000CB
:1036000000000000000000000000000000000000BA
:103610000000000001020304010203040607080978
:103620000000010002000400060008000A000C006F
:1036300010002000400080000001000000A24A04A9
:103640000000000000000000010203040607080952
:10365000000000000000000000000000000000006A
:043660000000000066
:040000050800018965
:00000001FF
