:020000040800F2
:10400000201000209D410008A5410008A74100089C
:10401000A9410008AB410008AD41000800000000C4
:10402000000000000000000000000000AF41000898
:10403000B141000800000000B3410008B54100088C
:10404000B7410008B7410008B7410008B741000870
:10405000B7410008B7410008B7410008B741000860
:10406000B7410008B7410008B7410008B741000850
:10407000B7410008B741000841970008B741000860
:10408000B7410008F1970008B7410008B7410008A0
:10409000B7410008B7410008B7410008B741000820
:1040A000B7410008B7410008B7410008B741000810
:1040B00085580008B7410008B7410008B74100081B
:1040C000B7410008B7410008B7410008B7410008F0
:1040D000B7410008C796000879970008B741000863
:1040E000B7410008B7410008B7410008B7410008D0
:1040F000B7410008B7410008B7410008B7410008C0
:10410000000000000000000000000000B7410008AF
:10411000B7410008B7410008B7410008B74100089F
:104120003188000855880008B7410008B7410008E9
:10413000B7410008B741000800000000000000007F
:10414000B7410008B7410008B7410008000000006F
:10415000000000000000000000000000000000005F
:104160000000000000000000B7410008B74100084F
:10417000B74100080000000000000000000000003F
:1041800000000000B7410008DFF80CD005F076FB16
:1041900000480047794B000820100020064880475F
:1041A00006480047FEE7FEE7FEE7FEE7FEE7FEE71C
:1041B000FEE7FEE7FEE7FEE77F840008894100088E
:1041C0000EB50121480503F02DFA0121084603F040
:1041D00043FA684601F09BFF4FF4E150ADF8000050
:1041E000042001906946000701F057FF01221146A3
:1041F000900702F078FC0121880701F0E9FF1C20FC
:104200000121814042094FF0E02303EB8202C2F812
:10421000001100BF0EBD10B5FE488478C079042897
:104220000DD1FC48007A0006FA49497A40EA01407B
:10423000F9490860F9480068401CF8490860F548E9
:10424000C079F8B9F5480068012806D104F0FEFBF2
:10425000F2480068401CF1490860EE488079ED4959
:10426000497940EA0120B0F5804F0BDBE9494979F3
:10427000E94A126842EA0121E64A927941EA0200DB
:1042800004F0A5FCE348C079012804D104F0E9FB5F
:104290000020E249086004F0D2FC8020DD4908706B
:1042A0004C70DF48407988700220C870AA20487797
:1042B000002005F01CF810BD10B5002404F052FEDB
:1042C0001020D4490871002048718871C871D549FF
:1042D00008600DE0D248D3490968415CCD4AD14815
:1042E000006808301154CF480068401CCD49086070
:1042F000CC4800681028EDDB0020C6490876084647
:10430000807A00F080004010497A01F0800140EA94
:10431000A100C049097A01F0800140EAE100BD49ED
:10432000C97901F0800140EA2110BA49897901F088
:10433000800140EA6110B749497901F0800140EA03
:10434000A110B449097940EAD110B249487608462B
:10435000407C00F080004010097C01F0800140EAC0
:10436000A100AC49C97B01F0800140EAE100A94904
:10437000897B01F0800140EA2110A649497B01F0C8
:10438000800140EA6110A349097B01F0800140EA05
:10439000A110A049C97A40EAD1109E498876084602
:1043A000007E00F080004010C97D01F0800140EAED
:1043B000A1009849897D01F0800140EAE10095491A
:1043C000497D01F0800140EA21109249097D01F008
:1043D000800140EA61108F49C97C01F0800140EA08
:1043E000A1108C49897C40EAD1108A49C876002006
:1043F0008C49086010E087498A4800680830085CEA
:1044000000F07F01834A87480068083011548548CE
:104410000068401C83490860824800681028EADB75
:1044200004208049086009E07A487E490968405CB8
:1044300004447C480068401C7A4908607948006858
:104440001C28F1DBE44304F07F007249087710BDBB
:104450000EB50121084603F0FFF84FF4E150ADF826
:104460000000012001900020ADF80800ADF8020026
:1044700069464FF0804001F010FE0121880701F0ED
:10448000A7FE0EBD10B518210620674A126802BBB0
:104490000022664B1A6018E0654A644B1B6852F8AC
:1044A0002320644B614C246843F82420624A5F4B0C
:1044B0001B6852F82320614B5C4C246843F824208D
:1044C0005A4A1268521C594B1A60584A12688A425A
:1044D000E2D9554A1268002A5FDD534A12688242C7
:1044E0005BDA514A1268564B1A6052E04E4A126823
:1044F000521E504B53F822304E4A514C246852F809
:104500002420934219D2484A1268521E494B53F84C
:1045100022204C4B1A60474A494B1B6852F8233003
:10452000414A1268521E434C44F82230454A1368EF
:104530002246434C246842F824303B4A1268521EFB
:104540003E4B53F822303D4A3D4C246852F824201B
:10455000934219D2344A1268521E384B53F8222023
:10456000394B1A60354A364B1B6852F823302E4AB5
:104570001268521E314C44F82230334A12682346E6
:104580002F4C246843F824202D4A1268521C2C4BCF
:104590001A602B4A12688A42A8D3234A12688242C0
:1045A0007EDB0022274B1A60274B1A6002221F4B2A
:1045B0001A6018E01F4A1D4B1B6852F82320214B3C
:1045C0001B681A441F4B1A601C4A184B1B6852F890
:1045D00023201D4B1B681A441B4B1A60134A126898
:1045E000521C124B1A60821E104B1B689A42E1D279
:1045F000144A12680323B2FBF3F2124B1A60124AF8
:1046000012680323B2FBF3F20F4B1A600D4A1268D3
:1046100014231BE0D00A00200C000020080000201A
:10462000EE0A002010000020840000200C01002071
:10463000C8090020C80100204C0A0020C80500203D
:10464000100100201401002018010020B2FBF3F239
:10465000FC4B1A60FC4A12681423B2FBF3F2FA4BCB
:104660001A60FA4A127AF74B1B685A436423B2FB6A
:10467000F3F2F64B9B791A44F54B1A60F34A527ADF
:10468000F14B1B685A436423B2FBF3F2EF4BDB7927
:104690001A44F04B1A60EB4A1268ED4B1A6000E0C6
:1046A00030E0E94A1268EB4B1A60EB4A1268521C80
:1046B000E94B1A60E94A1268E54B1B681A44E74B5C
:1046C0001A60E74A1268E34B1B681A44E44B1A600D
:1046D000E14A12680A2A15DB0022DF4B1A60DF4A22
:1046E00012680A2392FBF3F2DE4B1A60DC4A12686E
:1046F0000A2392FBF3F2DC4B1A600022D74B1A60BC
:10470000D74B1A60D94A1268521CD84B1A601A4605
:104710001268824208DD00221A600422D44BC3F8DA
:104720008020D44BC3F8802010BD70B5044600250E
:1047300000268020D0490870D04800784870C348CF
:1047400040798870CC7010200871AA204877CC4836
:1047500000784871CB48006818B9CB480068C9494F
:104760000860C8480068C44988710020C5490860CD
:10477000C6480078C049C871C54800780872C54865
:1047800000784872C44800788872C4480078C449E8
:10479000096840EA2120B849C872C1480068087316
:1047A000B04800784873B04800788873BD490868FD
:1047B000C11700EB1171C1F30711AF4AD173BA49A8
:1047C0000868C11700EB1171C1F307111174B748E4
:1047D000007811464874B64800788874B548006877
:1047E000002808DD9F48006800EB80004001B149C7
:1047F000096890FBF1F5B0480068002808DD9A4888
:10480000006800EB80004001AB49096890FBF1F6BD
:104810009949CD740E7500204875A8480088C0F3EA
:104820000710487589480078887588484078C875A9
:1048300086488078087604F002FA80208E49087055
:104840008E4800784870814840798870CC70AA20E2
:104850004877002004F04BFD70BD0020814A1268AB
:10486000814B1B68D11A01D40A4600E04A42232A30
:1048700001DB40F040007C490A687A49096823312D
:104880008A4201DD40F0040010F0CC0F14D17549CC
:1048900009687E4A1160744909687D4A11607B4944
:1048A0000968844A11607A490968834A11600021C5
:1048B000794A1170824A1160704770B50024042053
:1048C000804908600AE06C487E490968405C2044E1
:1048D000C4B27C480068401C7A4908607948006886
:1048E0001C28F0DBE043C4B204F07F046248007F80
:1048F000A04278D104F03FFA5F48407853494979A3
:10490000884221D15C488078FF281DD05A48C07861
:10491000012819D14D4800785749097A884213D1A6
:104920004A4840785449497A88420DD147488078AE
:104930005149897A884207D14F48857800206249D9
:10494000086004F07FF800BF4B4840783F49497940
:10495000884235D148488078FF2831D04648C07811
:1049600003282DD14448C07958490860084600788A
:1049700010F0010F0DD0404840790001494908600E
:104980003D4880790001484908603B480079474923
:1049900008604E48007800F00200022803D1002091
:1049A0004B49088002E0012049490880012046491E
:1049B000086031488078314908600320FFF7B5FE70
:1049C0002D4840782149497988420CD12A4880787D
:1049D000FF2808D02848C078042804D1FFF73DFFFD
:1049E0000420FFF7A2FE70BD10B53048007810F02B
:1049F000010F05D002214FF0904002F050FA04E080
:104A000002214FF0904002F04CFA2848007800F064
:104A10000200022805D108214FF0904002F03FFA31
:104A200004E008214FF0904002F03BFA1F48007864
:104A300000F0040004284DD180214FF0904002F096
:104A40002EFA4CE01401002018010020EE0A00208C
:104A50001C01002020010020880000208C00002084
:104A60009000002024010020280100208400002064
:104A7000C80900204C0A0020D00A00206C00002049
:104A80009C000020B4000020B00000207000002036
:104A900074000020580000205A00002094000020DC
:104AA0005C000020A4000020A8000020AC00002032
:104AB00059000020780000207C0000207C010020AC
:104AC000C000002010000020B8000020C40000201A
:104AD0000004004080214FF0904002F0E2F9FA48D3
:104AE000007800F00800082804D12021F74802F0DF
:104AF000D6F903E02021F54802F0D3F9F248007816
:104B000000F01000102804D14102F14802F0C7F96A
:104B100004E04FF40051EE4802F0C3F9EA4800788F
:104B200000F02000202804D10821E94802F0B7F95C
:104B300003E00821E64802F0B4F9E348007800F009
:104B40004000402804D10221E14802F0A8F903E026
:104B50000221DF4802F0A5F9DB48007800F0800070
:104B6000802804D10421DA4802F099F903E00421F5
:104B7000D74802F096F910BD03F081FC04F0F2F979
:104B80004FF4164004F0F6FA0220D2490860D248E9
:104B9000807A012806D14FF4E13004F0EBFA0620C8
:104BA000CC490860CC48807A022806D14FF46130A5
:104BB00004F0E0FA0C20C7490860C6480068C749FD
:104BC000086004F052FBC448C07A0001C449086080
:104BD000C148007B0001C3490860BF48407BBA4917
:104BE0000860FFF7EDFA4FF48041480301F0A2F9A5
:104BF000902003F02CFD03F063FD03F03EFE03F074
:104C0000D5FC03F0E7FCC9E00024B748006810F0C9
:104C1000400F05D04FF480714FF0904002F041F901
:104C200004F01BFCAE48008881B2002003F038FB82
:104C3000AC48008881B2002003F03FFBFFF7D4FEB0
:104C4000AA480068AA490968441A002C01DA04F548
:104C50008074002C7ED0A748006820B1A548006869
:104C6000401CA4490860A3480068022805D1A24856
:104C70009F490968405CA14948709E480068032824
:104C800005D19D489A490968405C9C4988709948BB
:104C90000068042805D1984895490968405C9749FF
:104CA000C8709448006804280CDD924800681A28EF
:104CB00008DA91488E490968415C8E480068401EB8
:104CC0008E4A11548B4800681A2808D18A488849AE
:104CD0000968415C87480068401E884A115485482D
:104CE00000681B2808D1844881490968415C8148D3
:104CF0000068401E814A11547E4800681C2808D173
:104D00007D487B490968415C7A480068401E7B4ABF
:104D10001154784800681D2808D1774874490968FB
:104D2000415C74480068401E744A11547148006820
:104D30001E2807D170486E490968405CAA2801D135
:104D4000FFF7BBFD6C486A490968405C802804D1C4
:104D5000012000E015E06749086067486449096878
:104D6000405CAA2802D100206249086060490968B5
:104D7000481CC11700EB11610912A0EB01215C4A2C
:104D800011605F48D0F88000032806D15D48D0F854
:104D90008000032801D1FFF775FB00BF34E710B591
:104DA000594803F076F8594803F073F80021584841
:104DB00002F07FFD00215648143002F07AFD0121F7
:104DC000534802F076FD01215148143002F071FD84
:104DD0004D4803F04FF84D4803F04CF80020484987
:104DE000C1F880004749C1F8800010BD0A20494938
:104DF0000860494800680A2864DD484800680A28B5
:104E0000FADD47490968444A1268A1EB0201454AA4
:104E10001268A1EB0201414A1268881801D40146C8
:104E200000E04142404A1160404909683A4A12682C
:104E3000A1EB02013E4A12681144384A1268881AEE
:104E400001D4014600E041423A4A11603648006808
:104E500030490968884203DD0120374908601EE0B7
:104E6000324800684D214843642190FBF1F12A4803
:104E700000682D4A1268801A814210DA2C480068B6
:104E80004D214843642190FBF1F024490968264AEA
:104E90001268891A884202DA0020274908601E48F1
:104EA00000682249096888424ADD1A4800684000C3
:104EB0001D490968884243DB20480068401C1F499F
:104EC000086040E091E10000AC00002000080048CC
:104ED00000040048C8000020EE0A0020BC000020AA
:104EE000A4000020A80000201C3801406C01002014
:104EF0007001002004000020FE0A0020D00A0020DB
:104F0000C80900204C0A0020000100500005005094
:104F100008040240D40000202401002028010020C1
:104F20007000002074000020CC00002078000020D9
:104F30007C000020D0000020C0000020D80000200D
:104F40000020F9490860F848006814281CDB00209C
:104F5000F5490860F5480068F549086008460068AA
:104F600064214843F3490968C1EBC10101EB8101A8
:104F7000B0EB810F08DDEF4800688C2148436421C5
:104F800090FBF1F0EA490860E9480068E7490968E0
:104F9000884208DDE848006828B9E8480068401CF5
:104FA000E649086002E00020E4490860E348006840
:104FB000642866DB0020E1490860E1480068E149B7
:104FC0000968401A0A2803DD0020DF49086002E072
:104FD0000220DD490860D5480068DC49096888423C
:104FE0001DDDD7480068D7490968401AD5490968C6
:104FF000D54A1268114448430A2190FBF1F0CB498D
:1050000009680844D249086008460068C849096828
:10501000884221DACE480068C54908601CE0C848CB
:105020000068C84909680844C6490968C64A126840
:10503000114448430A2190FBF1F0BC490968084437
:10504000C349086008460068B9490968884203DA1C
:10505000BF480068B6490860B54800686421484305
:10506000B4490968C1EB0111B0EB810F09DAB1480D
:105070000068C0EB00108000642190FBF1F0AC49A7
:105080000860B2480068B349096888420CDDB2483C
:1050900000684000AB490968884205DBAF480068FA
:1050A000401CAE49086002E00020AC490860AB48F3
:1050B000006814281CDB0020A8490860A348006889
:1050C000A44908600846006864214843A449096867
:1050D000C1EBC10101EB8101B0EB810F08DDA048FC
:1050E00000688C214843642190FBF1F099490860E5
:1050F0009848006895490968884208DD8E4800682C
:1051000028B998480068401C9649086002E00020D1
:105110009449086093480068642866DB0020914940
:1051200008608748006887490968401A0A2803DD33
:1051300000208549086002E0022083490860834816
:1051400000687A49096888421DDD7D4800687D490C
:105150000968401A7B4909687B4A12681144484330
:105160000A2190FBF1F07949096808447849086000
:105170000846006877490968884221DA744800685F
:10518000744908601CE06E4800686E49096808446C
:105190006C4909686C4A1268114448430A2190FB23
:1051A000F1F06A49096808446949086008460068DE
:1051B00068490968884203DA6548006865490860FB
:1051C000644800686421484365490968C1EB0111DE
:1051D000B0EB810F09DA62480068C0EB0010800074
:1051E000642190FBF1F05B49086070475E480068FD
:1051F000002838D15D480068042814D05B48006856
:10520000062810D05948006808280CDA574800686A
:10521000001D08D055480068801D04D05348006820
:1052200010F1080F1FDC52480078524908705248AC
:1052300000784F4908704D480068002807DD4F4846
:105240000068401C4D4908600020484908604748F4
:105250000068002807DA49480068401E474908608E
:1052600000204249086046480078012814D145488A
:105270000078012810D14448006868B943480068A4
:105280008000414908600846006840F6980188425D
:1052900002DD08463C4908603948007818B93948A9
:1052A0000078012806D036480078012808D1354812
:1052B000007828B935480068401C3449086002E08D
:1052C0000020324908602E48007828B92D4800781F
:1052D00010B900202C4908602D48007810F0220FEA
:1052E00004D02C480068401C2A4908602A480068FD
:1052F000642148430E4909682B225143B0EB410F0A
:1053000050DD2648007800F0DF00244908701E4870
:105310000068143022490968884246DD2048006848
:10532000401C1F49086040E0D800002024010020F4
:105330007800002070000020C0000020DC00002069
:10534000D0000020CC000020EC000020280100202C
:10535000E80000207C000020D4000020E0000020B5
:1053600074000020E4000020940000209800002039
:105370000001002059000020580000209C0000205F
:105380004800002049000020FC000020F800002018
:105390005A000020200000201C0100205B0000209B
:1053A000500000200020FE490860FE480068C0EB65
:1053B000001000EB8000FC49096801EBC10202EB20
:1053C0000111B0EB810F0FDDF848007840F02000AC
:1053D000F6490870F64800680A2808DAF4480068B8
:1053E000401CF349086002E00020F1490860F148E0
:1053F000006864214843F04909682B225143B0EB0F
:10540000410F12DDE948007800F0FD00E74908701F
:10541000EA4800681430EA490968884208DDE8482B
:105420000068401CE649086002E00020E44908608A
:10543000E1480068C0EB001000EB8000DD4909681E
:1054400001EBC10202EB0111B0EB810F0FDDD74878
:10545000007840F00200D5490870DA4800680A2850
:1054600008DAD8480068401CD649086002E00020ED
:10547000D4490860D14800680C30C949096888429D
:1054800002DC0020D0490870C9480068032802DB0C
:105490000120CD490870CC480078002806DDCB48B3
:1054A000007840F02000C949087005E0C74800783E
:1054B00000F0DF00C5490870C04800680C30C049E2
:1054C0000968884202DC0020C1490870BD480068B4
:1054D000032802DB0120BE490870BD48007800287F
:1054E00006DDBA48007840F00200B849087005E0CF
:1054F000B648007800F0FD00B4490870B248007862
:1055000000280BDDB348007840B9B148007828B9CD
:10551000B148007810B90120B0490870AA48007855
:1055200000281EDDAA48007800281ADDAB48007864
:10553000012816D10220A94908700020A649087048
:105540002220A24908709848006864214843954980
:1055500009682B225143B0EB410F02DD0120A04925
:1055600008709948007850B999480078002806DDFD
:105570009A480078022802D103209849087092487E
:10558000007800280ADD92480078002806DD93485C
:105590000078032802D10220904908708A480078D8
:1055A000F0BB8B480078D8BB8C480078032855D1D5
:1055B0008B480078012805D18448007840F010001D
:1055C00082490870002085490870864800680128D3
:1055D00013D185480068401C8349086083480068EF
:1055E0008349086083480078401C82490870084657
:1055F00000787F2801DD002008707A480068401C90
:1056000015D179480068401E7749086077480068DE
:105610007749086077480078401E7649087000E0B6
:105620001CE0084600787F2801DD7F200870724862
:105630000068401C7049086070480068002807DD59
:105640006E4800686E4991FBF0F06E49086002E018
:1056500000206C4908600020684908605A480078BA
:1056600068B95B48007850B95C480078002806DDCE
:1056700000205B4908706449087058490870544814
:10568000007800280BDD6148007840B94E4800786A
:1056900028B95248007810B901204F4908704C4889
:1056A000007800281EDD4848007800281ADD4A48A6
:1056B0000078012816D10220474908700020474988
:1056C00008702220414908703A4800686421484324
:1056D000394909682B225143B0EB410F02DD01200B
:1056E000494908703A48007850B93748007800288E
:1056F00006DD39480078022802D1032036490870B7
:105700003348007800280ADD2F480078002806DD9D
:1057100031480078032802D102202F4908702C4814
:105720000078D8BB28480078C0BB2B4800780328F5
:1057300034D135480078012805D12448007840F05C
:10574000010022490870002023490870254800689C
:10575000012813D124480068401E234908602348CB
:1057600000682349086023480078401E21490870DA
:10577000084600787F2801DD7F20087019480068FE
:10578000401C4ED118480068401C17490860174853
:105790000068174908601748007839E058E00000B1
:1057A00050000020780000201C0100205B00002039
:1057B00054000020200100207C000020FC0000207C
:1057C0003400002030000020480000205A00002053
:1057D00049000020640000204A0000204B00002007
:1057E00067000020F400002098000020B000002096
:1057F000B40000205800002060000020200000209D
:1058000020A107005C000020660000206500002049
:10581000401C46490870084600787F2801DD0020BA
:10582000087043480068401C4149086041480068CE
:10583000002807DD3F4800683F4991FBF0F03F49F1
:10584000086002E000203D490860002039490860F6
:105850003B48007868B93B48007850B93A4800782E
:10586000002806DD0020394908703949087036499A
:105870000870334800783749087032480078364954
:105880000870704710B53549086800EBD0714910B1
:10589000B0EB41012ED132480068401C304908600D
:1058A00030480068401C2F49086000202E490860DD
:1058B0004FF400514FF0904001F0D9FA012802D185
:1058C0008020294908602848006828B127480068D6
:1058D000401C264908600DE024480068C82806DD01
:1058E00022480068224991FBF0F02249086000201C
:1058F0001E4908602048006801280DD1FFF74FFAC3
:105900001E48006828B11E48006810B1FFF76EFC01
:1059100002E044201B49087010480068401C0F49F1
:1059200008600121880701F00AF910BD5800002025
:10593000600000202000002020A107005C00002063
:1059400048000020490000204A0000206600002096
:10595000670000206400002065000020B0000020E7
:10596000780100200000002094000020F0000020BA
:1059700080970600A0000020B800002078000020DA
:105980007C0000205A00002010B50446F9488442EB
:1059900009D10121880301F079FE00214FF48040F4
:1059A00001F074FE32E0F448844209D10121480438
:1059B00001F079FE00214FF4003001F074FE25E083
:1059C000EE48844209D10121880401F06CFE0021D7
:1059D0004FF4802001F067FE18E0E948844209D1C5
:1059E0000121C80401F05FFE00214FF4002001F006
:1059F0005AFE0BE0E348844208D10121080501F07A
:105A000052FE00214FF4801001F04DFE10BD2DE933
:105A1000F04190B004460D460027B84600262068A5
:105A200020F001002060666826F44056A86806430E
:105A30006660266841F20C608643E968686808433E
:105A40002969084306432660A66826F440766869FB
:105A50000643A66001A801F03CFBC648844202D17F
:105A6000DDF82C8013E0C448844202D1DDF8308098
:105A70000DE0C248844202D1DDF8348007E0C0481E
:105A8000844202D1DDF8388001E0DDF83C802068F6
:105A900010F4004F0CD04FEA48002968B0FBF1F732
:105AA0004FEA48002968B0FBF1F201FB120607E05B
:105AB0002868B8FBF0F72868B8FBF0F100FB118606
:105AC0002868B6EB500F00D37F1C206810F4004FFD
:105AD00007D0C7F342064FF6F07107EA010040EA2B
:105AE0000607A78110B0BDE8F0814FF416510160A0
:105AF000002141608160C1600C2101610021416190
:105B0000704710B50022426822F47062D1E9003477
:105B100023438C682343CC6823431A43426010BD5F
:105B20000021016041608160C160704721B102685D
:105B300042F00102026003E0026822F0010202600A
:105B400070471AB103680B43036002E003688B439C
:105B50000360704721B1026842F40042026003E032
:105B6000026822F400420260704721B1826842F468
:105B70000062826003E0826822F400628260704703
:105B800021B1426842F40022426003E0426822F4FC
:105B900000224260704721B1426842F48022426094
:105BA00003E0426822F48022426070471AB14368E1
:105BB0000B43436002E043688B434360704721B16D
:105BC000426842F40042426003E0426822F400422C
:105BD0004260704721B1426842F40002426003E033
:105BE000426822F4000242607047426902F07F423C
:105BF000426142690A4342617047028A02F47F426D
:105C00000282028A0A430282704721B1026842F08E
:105C10000202026003E0026822F0020202607047A2
:105C2000826822F44012826082680A438260704770
:105C300021B1426842F48012426003E0426822F4DB
:105C4000801242607047426822F4C002426042689B
:105C50000A4342607047C1F308020285704701465B
:105C6000888CC0F308007047426822F07F4242608F
:105C7000426842EA01624260704721B1026842F420
:105C80000052026003E0026822F400520260704792
:105C9000026822F40062026002680A4302607047F0
:105CA000426822F01002426042680A434260704734
:105CB000426822F02002426042680A434260704714
:105CC00021B1426842F48042426003E0426822F41B
:105CD00080424260704721B1826842F008028260CF
:105CE00003E0826822F0080282607047028AD2B222
:105CF0000282028A42EA01220282704721B182684E
:105D000042F02002826003E0826822F0200282607A
:105D1000704721B1826842F01002826003E082681D
:105D200022F0100282607047826822F46022826052
:105D3000826842EA414282607047426922F07F42B3
:105D40004261426942EA016242617047826822F020
:105D50000402826082680A438260704721B18268CF
:105D600042F00202826003E0826822F00202826056
:105D700070470000003801400044004000480040E7
:105D8000004C00400050004021B1826842F4804243
:105D9000826003E0826822F48042826070478268F9
:105DA00022F40042826082680A438260704702687F
:105DB00022F078720260026842EA41520260704743
:105DC000026822F4F8120260026842EA01420260AC
:105DD00070471AB183680B43836002E083688B438A
:105DE00083607047826822F40052826082680A43AE
:105DF00082607047F0B5034600240026002500208D
:105E00001846C1F30724CEB2012707FA06F5022C83
:105E100001D1001D02E0032C00D108301AB107683F
:105E20002F43076002E00768AF430760F0BD1AB177
:105E3000038B0B43038302E0038B8B430383704785
:105E4000826822F48052826082680A4382607047CE
:105E500002460020D3690B4201D0012000E000205F
:105E600070470162704770B502460B46002400215E
:105E700000250020C3F30725D9B2012606FA01F157
:105E8000012D02D11668314006E0022D02D156687C
:105E9000314001E0966831401C0C012606FA04F4FA
:105EA000D669344011B10CB1012000E0002070BD72
:105EB00010B5002200230A0C012404FA02F3036245
:105EC00010BD000031490143314A1160704770B57F
:105ED000002100230F22C4780CB32D4C246804F455
:105EE000E064C4F5E064210AC1F10403CA404478C7
:105EF00004FA03F18478144021430901254C067803
:105F0000A155047804F01F050124AC4005786D11FB
:105F10004FF0E02606EB8505C5F8004109E004785E
:105F200004F01F050124AC401B4D0678761145F89E
:105F3000264070BD194A0A400243154B1B1F1A60C8
:105F4000704739B1124A121D12680243104B1B1DD3
:105F50001A6006E00E4A121D126882430C4B1B1D8C
:105F60001A607047042808D14FF0E021096941F018
:105F700004014FF0E022116107E04FF0E0210969D0
:105F800021F004014FF0E022116170470000FA0592
:105F90000CED00E000E400E080E100E080FFFF1F86
:105FA00010B50446FD48844208D10121C01401F017
:105FB0006DFB0021E01401F069FB6DE0B4F1804F4E
:105FC00008D10121084601F06EFB0021012001F0FB
:105FD0006AFB61E0F248844208D10121022001F00D
:105FE00062FB0021022001F05EFB55E0ED48844297
:105FF00008D10121042001F056FB0021042001F00A
:1060000052FB49E0E848844208D10121102001F008
:106010004AFB0021102001F046FB3DE0E3488442AA
:1060200008D10121202001F03EFB0021202001F0B9
:106030003AFB31E0DE48844208D10121401401F0EE
:1060400025FB0021601401F021FB25E0D9488442A2
:1060500009D10121080401F019FB00214FF480301F
:1060600001F014FB18E0D448844209D1012148040E
:1060700001F00CFB00214FF4003001F007FB0BE0B6
:10608000CE48844208D10121880401F0FFFA0021A2
:106090004FF4802001F0FAFA10BD00220288BF4BB5
:1060A00098420BD0C24B984208D0B0F1804F05D037
:1060B000BB4B984202D0BB4B984204D14FF68F7332
:1060C0001A404B881A43B84B984207D0B74B9842B6
:1060D00004D04FF6FF431A400B891A4302804B68E5
:1060E000C3620B880385AD4B98420BD0B04B9842EE
:1060F00008D0B04B984205D0AF4B984202D0AF4B7E
:10610000984201D18B7A03860123436170474FF097
:10611000FF3141600021018001814180817270471F
:106120000185426170470A46002101884FF68F734E
:10613000194011430180704741627047C162704746
:106140000146486A70470146088D704721B10288B0
:1061500042F00202028004E002884FF6FD731A400A
:106160000280704721B1028842F00402028004E0FC
:1061700002884FF6FB731A400280704721B10288F3
:1061800042F40062028004E002884FF2FF731A407A
:106190000280704721B1028842F08002028004E050
:1061A00002884FF67F731A400280704702884FF6CC
:1061B000F7731A40028002880A43028070470288FF
:1061C0004FF6FF431A40028002880A43028070475C
:1061D00021B1028842F00102028004E002884FF6F9
:1061E000FE731A400280704730B50024002200235D
:1061F000056A25F001050562026A43688469704DED
:106200002C4024F003040D682C4322F002028D89F7
:106210002A438D882A43614DA8420BD0644DA84281
:1062200008D0644DA84205D0634DA84202D0634D0A
:10623000A8420FD122F00802CD892A4322F004029D
:10624000CD882A4323F4807323F400730D8A2B43F3
:106250004D8A2B43436084618D684563026230BD83
:1062600030B5002400220023056A25F010050562E0
:10627000026A43688469534D2C4024F440740D68CD
:1062800044EA052422F020028D8942EA05128D8815
:1062900042EA0512414DA84202D0454DA84213D111
:1062A00022F08002CD8942EA051222F04002CD8818
:1062B00042EA051223F4806323F400630D8A43EA63
:1062C00085034D8A43EA8503436084618D68856355
:1062D000026230BD30B5002400220023056A25F497
:1062E00080750562026A4368C46924F0700424F072
:1062F00003040D682C4322F400728D8942EA0522C2
:106300008D8842EA0522254DA84202D0284DA84298
:1063100013D122F40062CD8942EA052222F4806280
:10632000CD8842EA052223F4805323F400530D8ADA
:1063300043EA05134D8A43EA05134360C4618D683F
:10634000C563026230BD30B5002200230024056A17
:1063500025F480550562036A4468C26922F4E0426C
:1063600022F440720D6842EA052223F400538D891D
:1063700043EA05338D8843EA0533084DA84202D02D
:106380000B4DA84204D124F480440D8A44EA8514BC
:106390004460C2618D680564036230BD002C014019
:1063A00000040040000800400010004000140040BD
:1063B00000340140004001400044014000480140D9
:1063C0008FFFFEFFFF8FFFFE30B500230022002469
:1063D000056A25F480350562026A4468436D23F03E
:1063E00070030D682B4322F400328D8942EA054286
:1063F0008D8842EA0542FE4DA84202D0FD4DA842DA
:1064000004D124F480340D8A44EA05444460436591
:106410008D688565026230BD70B5002300220024BE
:10642000056A25F480150562026A4468436D23F409
:10643000E0430D6843EA052322F400128D8942EA05
:1064400005528D8842EA0552E94DA84202D0E94D35
:10645000A84207D124F400340D8A4FF6FF7606EAED
:1064600085452C43446043658D68C565026270BDF7
:1064700021B1826D42F00052826503E0826D22F00C
:1064800000528265704721B1826D42F08042826580
:1064900003E0826D22F080428265704721B1826DF7
:1064A00042F00042826503E0826D22F00042826584
:1064B0007047002101608180C18081608181C1813C
:1064C00001824182704770B50346002000241846BF
:1064D000183001258D40ACB21D6AE643B6B2354096
:1064E0001D6209B1082909D100EB61000568C24E9F
:1064F000354005600568154305600DE00D1F00EB94
:1065000055000568BD4E3540056005684FF6FF76BD
:1065100006EA02263543056070BD4163704781631A
:106520007047C16370470164704781657047C165FA
:1065300070470A4600218169AF4B194011438161C0
:1065400070470A4600218169AC4B194041EA02219B
:10655000816170470A460021C16921F07001114331
:10656000C16170470A460021C16921F4E04141EA56
:106570000221C16170470A460021416D21F070017E
:106580001143416570470A460021416D21F4E04105
:1065900041EA0221416570470A460021816921F0E4
:1065A00008011143816170470A460021816921F485
:1065B000006141EA0221816170470A460021C169F8
:1065C00021F008011143C16170470A460021C169E9
:1065D00021F4006141EA0221C16170470A460021AD
:1065E000416D21F008011143416570470A460021C1
:1065F000416D21F4006141EA0221416570470A467C
:106600000021816921F004011143816170470A462C
:106610000021816921F4806141EA02218161704792
:106620000A460021C16921F004011143C16170478C
:106630000A460021C16921F4806141EA0221C16159
:1066400070470A460021816921F080011143816170
:1066500070470A460021816921F4004141EA022184
:10666000816170470A460021C16921F08001114310
:10667000C16170470A460021C16921F4004141EA25
:106680000221C16170470A460021416D21F080015D
:106690001143416570470A460021416D21F40041D4
:1066A00041EA02214165704782684FF6F7731A404C
:1066B000826082680A43826070470A460021016A4C
:1066C00021F002011143016270470A460021016A6C
:1066D00021F008011143016270470A460021016A56
:1066E00021F0200141EA0211016270470A460021AF
:1066F000016A21F0800141EA0211016270470A46F5
:106700000021016A21F4007141EA0221016270470F
:106710000A460021016A21F4006141EA0221016276
:1067200070470A460021016A21F4005141EA023112
:10673000016270470A460021016A21F4003141EAF2
:106740000241016270470A460021016A21F40011EA
:1067500041EA02510162704730B50023012404FA76
:1067600001F3046A9C430462046A02FA01F52C43B3
:10677000046230BD30B50023042404FA01F3046A36
:106780009C430462046A02FA01F52C43046230BDA2
:10679000C2694FF2FF331A40C261C2694FF6FF73FC
:1067A00003EA01231A43C2617047F0B50C4615464F
:1067B000002100220026076A4EF6FF7C07EA0C073C
:1067C0000762C769B9B2076ABAB24FF6FF7707EA3C
:1067D000043640F6FF4739404FF6FF7707EA0527B2
:1067E00039434FF6FF7707EA0337394308E00000E3
:1067F000002C0140003401408FFFFEFFFF8FFFFEA1
:1068000045F6FF773A4046F480573A43C161026249
:10681000F0BDC2694FF6F3731A40C261C2690A4300
:10682000C2617047F0B50C461546002100220026D3
:10683000076A4FF6FF6C07EA0C070762C769B9B22F
:10684000076ABAB24FF6FF7707EA04264FF60C77CD
:1068500039404FF6FF7707EA03172F4339434FF2CA
:10686000FF573A4046F480773A43C1610262F0BD77
:10687000826922F440628261826942EA0122826175
:106880007047F0B50C461546002100220026076A25
:106890004FF6EF7C07EA0C0707628169026A4FF640
:1068A000FF7707EA041621F4734141EA033141EA14
:1068B00005214FF65F773A4046F010073A43816171
:1068C0000262F0BD826922F00C02826182690A4391
:1068D0008261704770B50C46154600210022066A99
:1068E00026F0010606628169026A21F0F30145EA99
:1068F0000316314322F00A0244F00106324381615B
:10690000026270BD70B505460C46208850B92389D7
:10691000A28861882846FFF7DDFFE1882846FFF757
:10692000D1FF25E0208804280AD12389A288618824
:106930002846FFF7A6FFE1882846FFF799FF17E0F2
:10694000208808280AD12389A28861882846FFF771
:1069500069FFE1882846FFF75CFF09E02389A288E8
:1069600061882846FFF721FFE1882846FFF710FFDE
:1069700070BD002101804180012181800021C18002
:10698000018170472DE9F04105460C46002601279C
:10699000608808B9022600E00026A088012801D1FD
:1069A000022700E001272088A0B92389A2886188F6
:1069B0002846FFF78FFFE1882846FFF783FF2389EA
:1069C0003A4631462846FFF75CFFE1882846FFF744
:1069D0004FFF13E02389A28861882846FFF751FF03
:1069E000E1882846FFF744FF23893A463146284686
:1069F000FFF770FFE1882846FFF764FFBDE8F081EC
:106A00000146486B70470146886B70470146C86B6A
:106A100070470146086C70470A884B881A438B8878
:106A20001A43CB881A430B891A434B891A438B8923
:106A30001A434264704710B5436C23F472234364D5
:106A4000436C41EA02442343436410BD10B5436CD8
:106A500023F03C734364436C41EA02542343436490
:106A600010BD21B1426C42F48052426403E0426C9A
:106A700022F480524264704721B1426C42F080722D
:106A8000426403E0426C22F080724264704700214D
:106A9000018041808180C180018141818181704775
:106AA00021B1426C42F40042426403E0426CC2F302
:106AB0000E024264704721B1426842F00402426013
:106AC00004E042684FF6FB731A404260704721B100
:106AD000426842F00102426004E042684FF6FE73F1
:106AE0001A404260704710B51AB1C3680B43C360C7
:106AF00004E0C368CC43A4B22340C36010BD41612D
:106B000070470246002013690B4201D0012000E0CB
:106B100000207047CA4392B20261704730B5024606
:106B2000002000230024156905EA0103D56805EA61
:106B3000010413B10CB1012000E0002030BDCA43B4
:106B400092B20261704741EA0203A0F848307047F0
:106B500010B51AB1C3680B43C36004E0C368CC43EB
:106B6000A4B22340C36010BD21B1426842F00802C4
:106B7000426004E042684FF6F7731A404260704783
:106B800081684FF6F8721140816070470A46002113
:106B9000836899B24FF68F73194011438160704733
:106BA00030B504460D4629462046FFF7EFFFA068A2
:106BB00040F00700A06030BD2DE9F04104460D46CD
:106BC00016461F46602D06D13B460122314620461F
:106BD000FFF757FE05E03B46012231462046FFF70E
:106BE00079FE29462046FFF7D1FFA06840F0070054
:106BF000A060BDE8F08130B50C4600218568A9B2DF
:106C0000C9B24FF6FF7505EA03251543254329430D
:106C1000816030BD2DE9F04105460E461746984685
:106C2000002443463A4631462846FFF7E4FFA86869
:106C300084B24FF6F870044044F007044FF68F70AA
:106C4000044044F07004AC60BDE8F081F0B5044647
:106C50000D4616461F463B46324629462046FFF75C
:106C6000CAFFA06840F48040A060F0BD42684FF6C3
:106C70008F731A40426042680A434260704742681C
:106C800022F47002426042680A43426070478268A0
:106C9000214B1A40826082680A4382607047826892
:106CA0004FF67F731A40826082680A4382607047A1
:106CB000F0B50C4615461E460021002200238768C9
:106CC000B9B28769BAB2076ABBB24FF6F8773940F2
:106CD00021434FF6FC473A4040F201173A434FF642
:106CE000DD773B404FF6FF7707EA06172F433B431C
:106CF000816082610362F0BD21B1426842F080028E
:106D0000426004E042684FF67F731A404260704769
:106D1000A0F8501070470000F8FFFEFF10B50446C1
:106D2000B4F1904F09D10121480400F0A2FC0021E8
:106D30004FF4003000F09DFC3CE07048844208D1E4
:106D40000121000200F095FC0021200200F091FCDE
:106D500030E06B48844208D10121000200F089FC38
:106D60000021200200F085FC24E06648844209D11D
:106D70000121080500F07DFC00214FF4801000F097
:106D800078FC17E06048844208D10121400200F0FD
:106D900070FC0021600200F06CFC0BE05B48844258
:106DA00008D10121880500F064FC00214FF4800027
:106DB00000F05FFC10BDF0B50A460021002300245E
:106DC00000BF3DE0012505FA01F3156805EA03045B
:106DD0009C4234D11579012D02D01579022D16D19E
:106DE00085684F000326BE40B543856055794E0047
:106DF000B540866835438560868801258D40AE4361
:106E00008680868895798D40ADB22E438680056850
:106E10004F000326BE40B543056015794E00B540CE
:106E2000066835430560C5684F000326BE40B5437C
:106E3000C560D5794E00B540C6683543C560491C6C
:106E40001029BFD3F0BD4FF6FF7101600021017121
:106E50000121417100218171C17170474FF480326D
:106E60000A43C261C161C261C269C2697047024618
:106E70000020138A0B4201D0012000E0002070475F
:106E80000146088A704702460020938A0B4201D0CF
:106E9000012000E0002070470146888A7047816128
:106EA0007047018570470AB1816100E00185704734
:106EB00081827047F0B5002300244D07ED0E02FAE1
:106EC00005F3CE1000F1200555F826504E07F70EB9
:106ED0000F26BE40B543CF1000F1200646F82750DC
:106EE000CE1000F1200555F8265045EA0304CE10D7
:106EF00000F1200545F82640F0BD000000040048E0
:106F000000080048000C0048001000480014004829
:106F1000FD48006840F00100FB49086008464068F1
:106F2000FA490840F849486008460068F8490840AE
:106F3000F54908600846006820F48020086008468B
:106F4000406820F4FE0048600846C06A6FF30D00F8
:106F5000C8620846006BEF490840EB49086300200F
:106F6000886070470021E84A917011468870704728
:106F700010B50246002100230020511111B9E24C46
:106F800023680BE0012902D1DF4C236A06E00429C3
:106F900002D1DD4C636801E0DB4C636A02F01F0143
:106FA00001248C401C4201D0012000E0002010BDD3
:106FB00038B5002000900024002500BF1120FFF705
:106FC000D7FF05460098401C00900098B0F5A06FD0
:106FD00001D0002DF2D01120FFF7CAFF08B1012423
:106FE00000E00024204638BD01460020C64A106853
:106FF00020F0F80040EAC10010607047C649086000
:107000007047C149096A21F00101BF4A1162114666
:10701000096A21F0040111621146096A01431162F3
:107020007047B949096A21F01801B74A116211463F
:10703000096A014311627047B84908607047B24A53
:10704000526822F47412B04B5A601A46526840EAF1
:1070500001031A43AC4B5A607047AF49086670474A
:1070600001460020A84AD06A20F00F000843D062F1
:107070007047A949C8647047A349C8717047014661
:107080000020A14A506820F0030008435060704778
:107090009D48406800F00C007047014600209A4A65
:1070A000506820F0F000084350607047014600200F
:1070B000954A506820F4E0600843506070470146EC
:1070C0000020914A506820F4605040EAC1005060AE
:1070D00070472DE9F0410021002400278C46002351
:1070E000002200250026DFF82082D8F8048008F06E
:1070F0000C0121B1042907D0082930D109E0DFF8BB
:107100002082C0F800802FE0DFF81482C0F80080F1
:107110002AE0DFF8F481D8F8048008F47014DFF86E
:10712000E881D8F8048008F480374FF0020808EBB3
:10713000944427B9DFF8EC8104FB08F20DE0DFF896
:10714000C881D8F82C8008F00F0808F1010CDFF88E
:10715000D081B8FBFCF808FB04F2026004E0DFF821
:10716000C081C0F8008000BF00BFDFF89C81D8F864
:10717000048008F0F0010909DFF8AC8118F801601B
:10718000D0F8008028FA06F8C0F80480DFF878818B
:10719000D8F8048008F4E061090ADFF88C8118F857
:1071A0000130D0F8048028FA03F8C0F80880DFF82E
:1071B0005881D8F8048008F46051C90ADFF8688162
:1071C00018F80150D0F8048028FA05F8C0F80C80AF
:1071D000DFF83481D8F82C8008F4F8710909DFF859
:1071E0004C8138F8113013F0100F04D0B2FBF3F8D3
:1071F000C0F8108003E0D0F80080C0F81080DFF8FD
:107200000881D8F82C8008F47851490ADFF81C81ED
:1072100038F8113013F0100F04D0B2FBF3F8C0F8B7
:10722000148003E0D0F80080C0F81480DFF8D88024
:10723000D8F8308008F01008B8F1100F04D0DFF84B
:10724000E080C0F8188003E0D0F80080C0F8188013
:10725000DFF8B480D8F8308008F02008B8F1200FAB
:1072600004D0DFF8BC80C0F81C8003E0D0F80080B8
:10727000C0F81C80DFF89080D8F8308008F480785F
:10728000B8F5807F0AD1D0F80080904506D1B5428C
:1072900004D14FEA4208C0F8208003E0D0F80C8007
:1072A000C0F82080DFF86080D8F8308008F40078DB
:1072B000B8F5007F0AD1D0F80080904506D1B542DC
:1072C00004D14FEA4208C0F8248003E0D0F80C80D3
:1072D000C0F82480DFF83080D8F8308018F0030F31
:1072E00004D1D0F80C80C0F828803CE0DFF818808A
:1072F000D8F8308008F00308B8F1010F18D1D0F8A1
:107300000080C0F828802EE00010024000C0FFF886
:10731000FFFFF6FECCFC000F000042428004424218
:1073200000127A0000093D002C0100203C010020E1
:10733000DFF8D083D8F8308008F00308B8F1020FE6
:1073400004D14FF40048C0F828800CE0DFF8B48383
:10735000D8F8308008F00308B8F1030F03D1DFF844
:10736000A883C0F82880DFF89C83D8F8308018F410
:10737000403F04D1D0F80880C0F82C8028E0DFF826
:107380008483D8F8308008F44038B8F5803F04D1C1
:10739000D0F80080C0F82C801AE0DFF86883D8F8B5
:1073A000308008F44038B8F5003F04D14FF400486D
:1073B000C0F82C800CE0DFF84C83D8F8308008F45B
:1073C0004038B8F5403F03D1DFF83C83C0F82C804B
:1073D000DFF83083D8F8308018F4402F04D1D0F88B
:1073E0000880C0F8308028E0DFF81883D8F83080B3
:1073F00008F44028B8F5802F04D1D0F80080C0F8F8
:1074000030801AE0DFF8FC82D8F8308008F4402899
:10741000B8F5002F04D14FF40048C0F830800CE0DC
:10742000DFF8E082D8F8308008F44028B8F5402F23
:1074300003D1DFF8D482C0F83080DFF8C882D8F8F2
:10744000308018F4401F04D1D0F80880C0F8348090
:1074500028E0DFF8B082D8F8308008F44018B8F59A
:10746000801F04D1D0F80080C0F834801AE0DFF823
:107470009482D8F8308008F44018B8F5001F04D181
:107480004FF40048C0F834800CE0DFF87882D8F878
:10749000308008F44018B8F5401F03D1DFF8688247
:1074A000C0F83480DFF85C82D8F8308018F4400FE0
:1074B00004D1D0F80880C0F8388028E0DFF8448292
:1074C000D8F8308008F44008B8F5800F04D1D0F81F
:1074D0000080C0F838801AE0DFF82882D8F83080C1
:1074E00008F44008B8F5000F04D14FF40048C0F884
:1074F00038800CE0DFF80C82D8F8308008F44008BF
:10750000B8F5400F03D1DFF80082C0F83880BDE83D
:10751000F0810021010F31B17A4AD26A22F4785207
:10752000784BDA6205E0774AD26A22F4F872754B3A
:10753000DA62744AD26A0243724BDA6270470021FF
:10754000010F31B16F4A126B22F020026D4B1A63AA
:1075500005E06C4A126B22F010026A4B1A63694A0A
:10756000126B0243674B1A6370470021010F31B160
:10757000644A126B22F40072624B1A6305E0614A9E
:10758000126B22F480725F4B1A635E4A126B0243E5
:107590005C4B1A6370470021010F062927D2DFE8F0
:1075A00001F026030A11181F564A126B22F003023B
:1075B000544B1A631CE0534A126B22F44032514B75
:1075C0001A6315E04F4A126B22F440224D4B1A63A6
:1075D0000EE04C4A126B22F440124A4B1A6307E049
:1075E000484A126B22F44002464B1A6300E000BF87
:1075F00000BF444A126B0243424B1A63704743492F
:10760000086070473F49096A01433E4A116270476A
:107610003F49086070473F49086070473D49091D70
:107620000860704729B1374A52690243354B5A61A5
:1076300004E0344A52698243324B5A61704729B19F
:10764000304A926902432F4B9A6104E02D4A9269B5
:1076500082432C4B9A61704729B12A4AD26902436E
:10766000284BDA6104E0274AD2698243254BDA616C
:10767000704729B1234A926A0243224B9A6204E07E
:10768000204A926A82431F4B9A62704729B11D4A71
:10769000D26802431B4BDA6004E01A4AD268824384
:1076A000184BDA60704729B1164A12690243154B2C
:1076B0001A6104E0134A12698243124B1A6170473F
:1076C00029B1104A527A02430E4B5A7204E00D4A15
:1076D000527A82430B4B5A7270470A48406A40F014
:1076E000807008494862704701460020054A926848
:1076F0000A4201D0012000E0002070470149887251
:10770000704700000010024000127A00D800424288
:10771000DC0042423C04424201684FF6FE721140D6
:1077200001600021016041608160C1608C49884234
:1077300008D18B490839496841F00F01884A083A55
:1077400051608AE086491431884208D18449083959
:10775000496841F0F001824A083A51607DE0804971
:107760002831884208D17E490839496841F470615E
:107770007B4A083A516070E079493C31884208D12F
:1077800077490839496841F47041754A083A5160AF
:1077900063E073495031884208D17149083949681A
:1077A00041F470216E4A083A516056E06C496431E8
:1077B000884208D16A490839496841F47001684A29
:1077C000083A516049E066497831884208D16449F5
:1077D0000839496841F07061614A083A51603CE0FB
:1077E0006049884206D1011F096841F00F01021F5C
:1077F000116032E05B491431884208D15949091FB0
:10780000096841F0F001574A121F116025E05549FF
:107810002831884208D15349091F096841F4706131
:10782000504A121F116018E04E493C31884208D17D
:107830004C49091F096841F470414A4A121F1160FE
:107840000BE048495031884207D14649091F096871
:1078500041F47021434A121F1160704710B5002295
:10786000026847F6F0739A430C6A8B6823430C69ED
:1078700023434C6923438C692343CC6923434C6ADB
:1078800023438C6A23431A4302608B8943600B684D
:1078900083604B68C36010BD00210160416081605E
:1078A0008181016141618161C161016241628162E5
:1078B000704721B1026842F00102026004E00268F0
:1078C0004FF6FE731A4002607047416070470146F0
:1078D000486880B270471AB103680B43036002E046
:1078E00003688B430360704701460020002211F0BB
:1078F000805F03D01B4B083B1A6802E0184B083B23
:107900001A680A4201D0012000E00020704710F000
:10791000805F03D01349091F086002E0104908394D
:107920004860704701460020002211F0805F03D0BC
:107930000C4B083B1A6802E0094B083B1A680A42E4
:1079400001D0012000E00020704710F0805F03D0DC
:107950000449091F086002E001490839486070477E
:10796000080002400804024010B50446B4F1A04FDC
:1079700002D0FA48844209D101210807FFF779FEB5
:1079800000214FF08050FFF774FE0EE0F44884426F
:1079900002D0F448844208D101214807FFF769FE6C
:1079A00000214FF00050FFF764FE10BD10B50246F5
:1079B0000020D068EC4B1840D1E9003423438C6898
:1079C0002343CC6823430C6923434C6923438C69CC
:1079D00023431843D060106B20F00F000B7F5B1E19
:1079E0001843106310BD0021016041608160C160D7
:1079F00001614161816101210177704710B5002269
:107A0000C26C00220B7A5B1E0C6823434C68234334
:107A1000CC6843EA04230C6943EA84338C8A43EA42
:107A200004530C7E43EA8462C26410BD00210160ED
:107A3000416001210172C160016141618161704752
:107A400010B50022B0F1A04F02D0C44B984205D12E
:107A5000C64B1A68C64B02EA030203E0C54B1A681C
:107A6000C34B1A40D1E9003423438C682343CC68CC
:107A700043EA04330C7C43EA04231A43B0F1A04FD9
:107A800002D0B64B984202D1B84B1A6001E0B94B14
:107A90001A6010BD0021016041608160C160017405
:107AA000704721B1826842F00102826003E082687F
:107AB00042F0020282607047816841F000418160BB
:107AC00070470146D1F8B4007047C0F8B410704751
:107AD000826822F08042826082680A438260704736
:107AE000014600208A6812F0004F01D0012000E01A
:107AF00000207047816841F00201816070470146B3
:107B000000208A6812F0020F01D0012000E000205E
:107B10007047826822F04052826021B1826842F050
:107B20008052826003E0826842F0005282607047B7
:107B300010B53AB1D0F8B03001248C402343C0F8DE
:107B4000B03006E0D0F8B03001248C40A343C0F838
:107B5000B03010BD21B1C26842F40012C26003E02F
:107B6000C26822F40012C260704721B1C26842F4B8
:107B70008042C26003E0C26822F48042C260704763
:107B80000A460021C16821F0E0711143C1607047CD
:107B900010B5036A784C23400362036A43EA014349
:107BA0000362036A6FF30B030362036A1343036206
:107BB00010BD436A23F47F034362436A43EA0143EF
:107BC0004362436A23F0FF034362436A1343436201
:107BD0007047836A23F47F038362836A43EA014325
:107BE0008362836A23F0FF038362836A13438362A1
:107BF00070470A460021C16821F0F84141EA8261DC
:107C0000C16070470A46002150F8A01F5B4B194025
:107C100001239340194303680B4340F8A039704790
:107C20000A46002150F8A41F544B194001239340E9
:107C3000194303680B4340F8A4397047B0F1A04FD3
:107C400002D0464A904212D141B1484A126842F4E9
:107C500000024FF0A043C3F8082316E0434A12681D
:107C600022F400024FF0A043C3F808230DE031B125
:107C7000404A126842F400023E4B1A6005E03D4A59
:107C8000126822F400023B4B1A607047B0F1A04F1B
:107C900002D0324A904212D141B1344A126842F4C1
:107CA00080024FF0A043C3F8082316E02F4A126861
:107CB00022F480024FF0A043C3F808230DE031B155
:107CC0002C4A126842F480022A4B1A6005E0294AC5
:107CD000126822F48002274B1A607047B0F1A04F5F
:107CE00002D01E4A904212D141B1204A126842F09D
:107CF00080724FF0A043C3F8082316E01B4A1268B5
:107D000022F080724FF0A043C3F808230DE031B198
:107D1000184A126842F08072164B1A6005E0154A44
:107D2000126822F08072134B1A607047F0B50C464F
:107D30001D4600BF00BF052A22DA016B02EB420696
:107D400077001F2606FA07F3994302EB42067600F6
:107D500004FA06F3194301634FE0000000010050EC
:107D6000000400500005005007C0FFFD080300504C
:107D7000E010FCFF08070050FFFF00F00100F8FFD3
:107D80000A2A11DA416B561F06EB460677001F26BA
:107D900006FA07F39943561F06EB4606760004FAE7
:107DA00006F31943416328E00F2A13DA816BA2F12D
:107DB0000A0606EB460677001F2606FA07F39943E4
:107DC000A2F10A0606EB4606760004FA06F319430A
:107DD000816312E0C16BA2F10F0606EB4606770045
:107DE0001F2606FA07F39943A2F10F0606EB460693
:107DF000760004FA06F31943C163092C14DD816986
:107E0000A4F10A0606EB4607072606FA07F3866979
:107E10009E4386618669A4F10A0707EB470705FAC6
:107E200007F73E43866110E04169661E06EB460790
:107E3000382606FA07F346699E434661466904EB15
:107E4000440705FA07F73E434661F0BD026B22F096
:107E50000F020263026B4B1E1A430263704710B598
:107E6000C36823F47C63C360C36842EA010423430C
:107E7000C36010BD816841F0040181607047014614
:107E800000208A6812F0040F01D0012000E00020D9
:107E90007047816841F010018160704710B50A4653
:107EA00000210023C16821F46021531E41EA4341AF
:107EB000C16010BD21B1C26842F48032C26003E0EB
:107EC000C26822F48032C26070470146086C80B2FA
:107ED000704701460020B1F1A04F02D0B14A914253
:107EE00002D1B14A106801E0B04A10687047036ED1
:107EF00023F0F8430366036E43EA81630366036E6F
:107F00006FF30B030366036E134303667047436E00
:107F100023F0F8434366436E43EA81634366436E4E
:107F20006FF30B034366436E134343667047836EE0
:107F300023F0F8438366836E43EA81638366836E2E
:107F40006FF30B038366836E134383667047C36EC0
:107F500023F0F843C366C36E43EA8163C366C36E0E
:107F60006FF30B03C366C36E1343C366704721B13F
:107F7000026E42F00042026603E0026E22F000420E
:107F80000266704721B1426E42F00042426603E051
:107F9000426E22F000424266704721B1826E42F08A
:107FA0000042826603E0826E22F0004282667047E1
:107FB00021B1C26E42F00042C26603E0C26E22F0FE
:107FC0000042C266704721B1C26842F00102C2603D
:107FD00003E0C26822F00102C2607047C26822F06A
:107FE0000202C260C2680A43C2607047F0B504462C
:107FF000154600200022092911DDA069A1F10A0619
:1080000006EB4607072606FA07F29043A1F10A0697
:1080100006EB460603FA06F21043A0610CE0606925
:1080200001EB4107072606FA07F2904301EB4106F0
:1080300003FA06F210436061E06C6E1E06EB460622
:1080400077004FF4F85606FA07F290436E1E06EBDF
:108050004606760001FA06F21043E064F0BD0A46D7
:108060000021C16C21F00301531E1943C164704704
:1080700010B5C36C23F0FC03C364C36C41EA020473
:108080002343C36410BD816841F0080181607047DB
:10809000816841F0200181607047014600208A68B4
:1080A00012F0080F01D0012000E00020704721B13C
:1080B000C26842F00072C26003E0C26822F000723F
:1080C000C260704721B1C26842F48012C26003E00E
:1080D000C26822F48012C260704708B502460020D0
:1080E0000090009201F18000009B184400900098DD
:1080F000006880B208BD1AB143680B43436002E0D8
:1081000043688B43436070470246002013680B426C
:1081100001D0012000E0002070470160704710B5D9
:10812000024600230020B2F1A04F02D01D4CA24213
:1081300002D11F4C236802E01C4C0C3C23680B420C
:1081400001D0012000E0002010BDB0F1A04F02D00E
:10815000144A904208D1164A126842EA01024FF0CE
:10816000A043C3F8002306E0104A0C3A12680A4301
:108170000E4B0C3B1A60704730B5024600200023BE
:10818000002415680D40ABB255680D40ACB213B178
:108190000CB1012000E0002030BD02680A430260FB
:1081A00070470000000100500C0300500C07005005
:1081B0000003005010B501214807FFF774FA0021B1
:1081C0004FF00050FFF76FFA10BD30B500220023CA
:1081D0007B4C226840F6FE748440A243D1E90045FE
:1081E0002C438D682C43CD6844EA050303FA00F460
:1081F0002243734C226030BD0021016041608160E8
:10820000C160704739B16E4A1268012383401A4336
:108210006B4B1A6006E06A4A1268012383409A4356
:10822000674B1A60704710B551B1654A121D12684C
:1082300004090123A3401A43614B1B1D1A6009E086
:108240005F4A121D126804090123A3409A435C4B44
:108250001B1D1A6010BD40B15949091D096841F044
:108260000301574A121D116007E05549091D0968AD
:1082700021F00301524A121D1160704710B53AB146
:108280004F4B1B6801FA00F423434D4C236006E07A
:108290004B4B1B6801FA00F4A343494C236010BD0B
:1082A00008B500220092464A009200F10802009BA5
:1082B0001A440092009A116008BD08B5002200928D
:1082C0003F4A009200F11402009B1A440092009A67
:1082D000116008BD30B500240023082802D142EA0D
:1082E000012401E042EA0144354B00F120052B4412
:1082F0001C6030BD08B50146002000903048009059
:108300002C2000EB9100009A104400900098006827
:1083100080B208BD41B12A4A12684FF480538340AD
:108320001A43274B1A6007E0254A12684FF480531E
:1083300083409A43224B1A60704710B53AB1204BE4
:108340001B6801FA00F423431D4C236006E01C4B1C
:108350001B6801FA00F4A343194C236010BD10B54B
:1083600002460020164B34331B6801FA02F4234204
:1083700001D0012000E0002010BD01FA00F2104BF6
:1083800034331A60704730B50246002000230C4C8D
:10839000246801FA02F504EA0503094C3434246820
:1083A00001FA02F52C4202D00BB1012000E00020BE
:1083B00030BD01FA00F2024B34331A6070470000FE
:1083C000007400400CB50020019000906A480068DD
:1083D00040F480306849086000BF6748006800F4D6
:1083E000003000900198401C0190009818B9019845
:1083F000B0F5A06FF1D16048006810F4003F02D0E2
:108400000120009001E0002000900098012835D163
:1084100002205A4908605848406857494860084651
:10842000406848600846406840F4806048600846FC
:10843000406820F47C1048600846406840F4E8102A
:1084400048600846006840F08070086000BF4A48F5
:10845000006810F0007FFAD04748406820F0030021
:10846000454948600846406840F00200486000BF47
:108470004148406800F00C000828F9D10CBD10B547
:108480003F48006840F470003D4908603A48006881
:1084900040F0010038490860084640683949084002
:1084A0003549486008460068374908403249086045
:1084B0000846006820F4802008600846406820F4E0
:1084C000FE0048600846C06A20F00F00C8620846F7
:1084D000006B2E4908402849086300208860FFF798
:1084E00071FF4FF0006026498039086010BD30B53B
:1084F00000210020002200231F4C646804F00C01BE
:1085000021B1042906D0082925D107E0204C214DAE
:108510002C6024E01E4C1F4D2C6020E0164C64683B
:1085200004F47010144C646804F48032022404EBE8
:10853000904022B9184C4443164D2C600AE00E4C72
:10854000E46A04F00F04631C114CB4FBF3F44443DD
:10855000104D2C6003E00E4C0E4D2C6000BF00BF90
:10856000054C6468C4F303140C4D295D094C246860
:10857000CC40084D2C6030BD00100240002002406D
:1085800088ED00E00CC07FF8FFFFF6FECCFC00FF9A
:1085900000127A005801002000093D005C01002013
:1085A00000BF0100A0F10100FBD170471CB5012103
:1085B0004804FFF737F800208DF804004FF400500E
:1085C000009003208DF8050069464FF09040FEF7BB
:1085D000F2FB1CBD1CB501214804FFF723F8012163
:1085E0008804FFF71FF80121C804FFF71BF80120DA
:1085F0008DF804008A20009000208DF806000320EA
:108600008DF8050069464FF09040FEF7D4FB01203D
:108610008DF8040042F20E00009000208DF8060054
:1086200003208DF805006946F948FEF7C4FB0120D8
:108630008DF804002020009000208DF80600032013
:108640008DF805006946F348FEF7B5FB1CBDF249FD
:10865000496941F40021F04A5161EE49096841F449
:108660000041EC4A1160EB492031096841F00051AA
:10867000E84A20321160E7490831096841F4404175
:10868000E44A08321160E449C96941F00201E24A52
:10869000D1610021E14A1180E0492C3108604FF49A
:1086A0006051DE4A183211600121DC4A3832116013
:1086B0001021DA4A203211600121D84A1180704716
:1086C00000B587B001210220FEF7ACFF0121480769
:1086D000FEF7C2FF01214804FEF7A4FF30200590F9
:1086E00003208DF8180000208DF81B0005A94FF01D
:1086F0009040FEF760FBFFF75DFD002003900490C3
:108700000190029001A9FFF760FD01210020FFF711
:1087100079FD01A91020FFF758FD01211020FFF776
:1087200071FD07B000BD1CB501214FF41810FEF714
:1087300079FF03208DF8040000208DF80700442005
:10874000009069464FF09040FEF735FB4FF48050A3
:1087500000906946AE48FEF72EFB4FF400500090A3
:108760006946AF48FEF727FB1CBD00B58DB0002061
:108770008DF805008DF8060001208DF80700012115
:108780000220FEF74FFFA7480290A7480390002061
:1087900004902020ADF8140000200690802007905F
:1087A000800008908000099020200A90C0010B9062
:1087B00000200C9002A99D48FFF750F838208DF852
:1087C000040001A8FDF783FB0DB000BD00B58DB01E
:1087D00000208DF805008DF8060001208DF80700B7
:1087E00001210220FEF71EFF91480290914803905C
:1087F000002004902020ADF8140000200690802076
:108800000790800008908000099020200A90C00105
:108810000B9000200C9002A984481430FFF71EF83A
:1088200039208DF8040001A8FDF751FB0DB000BD03
:1088300010B58148FFF776F818B17F48401EFFF762
:1088400084F87D48401EFFF780F803207649C1F880
:10885000800010BD10B578481E30FFF763F818B1DE
:1088600075480E30FFF771F873480E30FFF76DF85A
:1088700003207049C1F8800010BD00B58FB04FF4DF
:108880008070FEF746FE6D48FEF743FE01214FF073
:108890004050FEF7C7FEFFF746FFFFF766FFFFF702
:1088A00095FF01215F484038FFF733F90121604807
:1088B0004038FFF72EF90020019002E00198401C9B
:1088C00001905F4901988842F8DB00215548403803
:1088D000FFF7FEF853484038FFF7EEF80021544800
:1088E0004038FFF7F5F852484038FFF7E5F800BF89
:1088F0004C484038FFF7F4F80028F9D1494840388F
:10890000FFF7DFF800BF4A484038FFF7E9F80028D2
:10891000F9D147484038FFF7D4F80020029003907F
:10892000049005908DF818004FF400500790002037
:1089300008900A900B900C900D9001208DF8380053
:108940000020099007A937484038FFF72FF800208A
:10895000099007A936484038FFF728F80323012279
:10896000194630484038FFF7E1F903230122194640
:108970002F484038FFF7DAF900212A484038FFF73E
:108980002DFB00212A484038FFF728FB012125480C
:108990004038FFF718FB012125484038FFF713FB4B
:1089A000012120484038FFF77CF801212048403859
:1089B000FFF777F800BF01211A484038FFF7A4FB02
:1089C0000028F8D000BF012119484038FFF79CFB70
:1089D0000028F8D001211548FEF76BFF012113484C
:1089E0001430FEF766FF012202211048FEF773FFE4
:1089F000012202210D481430FEF76DFF03200A49C1
:108A0000C1F880000B49C1F880000FB000BD000024
:108A10000004004800080048001002400004004024
:108A20000010004840010050C8090020080402401E
:108A3000400500504C0A00200200001000200010E9
:108A4000A0860100FD48FE4908607047FD480069A6
:108A500010F0800F04D0FC48FA494860FB48486099
:108A60007047F848006940F08000F6490861704797
:108A70000420F449C96811F0010F01D001200EE073
:108A8000F049C96811F0100F01D0022007E0ED494C
:108A9000C96811F0040F01D0032000E004207047E2
:108AA00000B502460423FFF7E3FF034603E0FFF7A8
:108AB000DFFF0346521E012B01D1002AF7D102B974
:108AC0000523184600BD30B5044604254FF4302078
:108AD000FFF7E6FF0546042D1ED1DA48C06810F006
:108AE000200F02D02020D749C860D648006940F046
:108AF0000200D449086108464461006940F0400022
:108B000008614FF43020FFF7CBFF0546CD480069E0
:108B100020F00200CB490861284630BD78B50646F2
:108B20000C460425002000904FF43020FFF7B8FFDA
:108B30000546042D24D1C348006940F00100C14915
:108B4000086134804FF43020FFF7AAFF0546042D5A
:108B500010D1B01C0090200C009908804FF43020F8
:108B6000FFF79EFF0546B748006920F00100B549B0
:108B7000086105E0B348006920F00100B1490861CF
:108B8000284678BDF0B504460E461746002500BFBE
:108B900015E056F825102068FFF7C0FF04280BD118
:108BA0002068006856F82510884201D00220F0BDE8
:108BB0002068001D206001E00120F8E76D1CBD4227
:108BC00003D22068A2498842E3D90020EFE730B5FC
:108BD00005460024082408E0281908384005400DFF
:108BE00002D12846FFF76FFFA41C162CF4DD954830
:108BF000006940F0010093490861082416E000BFB5
:108C00009048C06810F0010FFAD19248015D024609
:108C1000601C105C41EA0020291921F8080C00BFF3
:108C20008848C06810F0010FFAD1A41C162CE6DDAC
:108C30008448006920F001008249086130BD0020AD
:108C40000021844A127902F1090000E0401C1C282E
:108C5000FCDB804A927A02F0800252107D4B5B7AF4
:108C600003F0800342EAA3027A4B1B7A03F08003ED
:108C700042EAE302774BDB7903F0800342EA2312F6
:108C8000744B9B7903F0800342EA6312714B5B796A
:108C900003F0800342EAA3126E4B1B7942EAD3121F
:108CA0006C4B5A761A46527C02F0800252101B7CA2
:108CB00003F0800342EAA302664BDB7B03F08003F0
:108CC00042EAE302634B9B7B03F0800342EA2312F8
:108CD000604B5B7B03F0800342EA63125D4B1B7BBE
:108CE00003F0800342EAA3125A4BDB7A42EAD31222
:108CF000584B9A761A46127E02F080025210DB7DA3
:108D000003F0800342EAA302524B9B7D03F08003F1
:108D100042EAE3024F4B5B7D03F0800342EA2312F9
:108D20004C4B1B7D03F0800342EA6312494BDB7C12
:108D300003F0800342EAA312464B9B7C42EAD31223
:108D4000444BDA76042006E0424A125C02F07F02CD
:108D5000404B1A54401C1828F6DD042003E03D4A1D
:108D6000125C1144401C1C28F9DBC94301F07F024E
:108D7000384B1A7770473748407E10F0010F05D006
:108D80003448007940F08000324908713148407E13
:108D900010F0020F05D02F48407940F080002D4997
:108DA00048712C48407E10F0040F05D02948807986
:108DB00040F08000274988712648407E10F0080F57
:108DC00005D02448C07940F080002249C87121486C
:108DD000407E10F0100F05D01E48007A40F0800051
:108DE0001C4908721B48407E10F0200F05D019481E
:108DF000407A40F08000174948721648407E10F0D3
:108E0000400F05D01348807A40F0800011498872E5
:108E10001048807E10F0010F05D00E48C07A40F057
:108E200080000C49C8720B48807E10F0020F14D0ED
:108E30000848007B40F0800006490DE00400FA0578
:108E40000CED00E00020024023016745AB89EFCD27
:108E5000FBFF0308D00A00200873C148807E10F091
:108E6000040F05D0BE48407B40F08000BC494873E9
:108E7000BB48807E10F0080F05D0B948807B40F0D9
:108E80008000B7498873B648807E10F0100F05D077
:108E9000B348C07B40F08000B149C873B048807EC1
:108EA00010F0200F05D0AE48007C40F08000AC49A7
:108EB0000874AB48807E10F0400F05D0A848407C75
:108EC00040F08000A6494874A548C07E10F0010F0C
:108ED00005D0A348807C40F08000A1498874A04858
:108EE000C07E10F0020F05D09D48C07C40F080008D
:108EF0009B49C8749A48C07E10F0040F05D098486A
:108F0000007D40F08000964908759548C07E10F0BD
:108F1000080F05D09248407D40F080009049487588
:108F20008F48C07E10F0100F05D08D48807D40F036
:108F300080008B4988758A48C07E10F0200F05D0CC
:108F40008748C07D40F080008549C8758448C07E50
:108F500010F0400F05D08248007E40F0800080492C
:108F6000087670477F4800787F4908707D48401C2C
:108F7000007848707B48801C007888707948C01C55
:108F80000078C8707748001D007808717548401D4A
:108F9000007848717348801D007888717148C01D41
:108FA0000078C8716F480830007808726D48093041
:108FB000007848726B480A300078887269480B3034
:108FC0000078C87267480C300078087365480D3027
:108FD0000078487363480E300078887361480F301A
:108FE0000078C873704700B5FFF730FD5F48FFF7A2
:108FF0006AFD5F48006940F001005D49086100BFFB
:109000005B48C06810F0010FFAD157480078564904
:10901000497840EA01205349088000BF5448C0689D
:1090200010F0010FFAD100BF5148C06810F0010FD5
:10903000FAD14D4880784C49C97840EA0120494925
:10904000891C088000BF4A48C06810F0010FFAD19F
:1090500000BF4748C06810F0010FFAD142480079BC
:109060004149497940EA01203E49091D088000BF75
:109070003F48C06810F0010FFAD100BF3C48C068FB
:1090800010F0010FFAD1384880793749C97940EAA0
:1090900001203449891D088000BF3548C06810F0A0
:1090A000010FFAD100BF3248C06810F0010FFAD1A9
:1090B0002D48007A2C49497A40EA01202949083193
:1090C000088000BF2A48C06810F0010FFAD100BF25
:1090D0002748C06810F0010FFAD12348807A22494E
:1090E000C97A40EA01201F490A31088000BF2048A0
:1090F000C06810F0010FFAD100BF1D48C06810F021
:10910000010FFAD11848007B1749497B40EA01203A
:1091100014490C31088000BF1548C06810F0010FD9
:10912000FAD100BF1248C06810F0010FFAD10E4802
:10913000807B0D49C97B40EA01200A490E31088035
:1091400000BF0B48C06810F0010FFAD10848006951
:1091500020F0010006490861FFF783FC00BD000014
:10916000D00A0020F03F0008EE0A00200038000876
:109170000020024010B588B0044601214804FEF7E3
:1091800051FA01218803FEF75AFA01208DF81C00DC
:1091900003208DF81D0000208DF81E004FF4807014
:1091A000069006A94FF09040FDF705FE4FF4807140
:1091B0004FF09040FDF775FE07220921C806FDF724
:1091C00079FE07220A214FF09040FDF773FE4FF41D
:1091D000C060069002208DF81C0000208DF81E0053
:1091E00001208DF81F0003208DF81D0006A94FF007
:1091F0009040FDF7E0FD0094002001900290039064
:1092000005900C2004906946FE48FCF700FC2520E0
:1092100000F006FB0121FB48FCF788FC0122FA491B
:10922000F848FCF7E7FD08B010BD10B504464FF450
:1092300080714FF09040FDF732FE00BFF1481C30C6
:10924000006810F0800FF9D0EE482830048000BF8D
:10925000EC481C30006810F0400FF9D04FF48071DA
:109260004FF09040FDF71DFE10BD00B58DB0002001
:109270008DF805008DF8060001208DF8070001210A
:109280000846FEF7CFF9E148FEF746FA02A8FEF7D6
:1092900003FBDC4828300290DD4803901020049046
:1092A0001E20ADF8140000200690802007900020BA
:1092B000089009904FF400500B9002A9D348FEF794
:1092C000CDFA01228021CF48FCF783FD0121CF4850
:1092D000FEF7EFFA0E208DF8040001A8FCF7F7FD69
:1092E00001220221C948FEF7F6FA0DB000BD10B503
:1092F00004460020C74908604FF480714FF0904049
:10930000FDF7CDFD01228021BE48FCF762FD1E2144
:10931000BE48FEF7DAFA0121BC48FEF7CAFA012C72
:1093200004D100BFBB4800680028FBD010BD10B5B9
:1093300088B0044601210805FEF774F92020069044
:1093400002208DF81C0003208DF81D0001208DF8EF
:109350001E008DF81F0007220521AF48FDF7AAFD6A
:1093600006A9AD48FDF727FD4020069002208DF8A4
:109370001C0003208DF81D0000208DF81E008DF8C4
:109380001F0007220621A448FDF794FD06A9A24864
:10939000FDF711FD01214804FEF75EF99F48FCF737
:1093A000F3FA6846FCF7A1FB0094002001900290BC
:1093B000039005900C20049069469848FCF727FB21
:1093C00001219648FCF787FC262000F029FA0121AC
:1093D0009248FCF7ABFB01228B499048FCF70AFD51
:1093E00008B010BD10B58CB0044600208DF8010007
:1093F0008DF8020001208DF8030001210846FEF7D8
:1094000011F982483C30FEF787F901A8FEF744FACB
:109410008248283001908248029010200390A0B228
:10942000ADF81000002005908020069000200790E5
:1094300008900A9001A975483C30FEF70FFA1120F8
:109440008DF800006846FCF742FD012202216F48BA
:109450003C30FEF740FA0CB010BD10B57148006802
:109460001E2821DB70480068F0B9F0206C490870B4
:109470004FF41650FFF75BFF0120FFF7B3FF012207
:1094800080216648FCF7A5FC012160483C30FEF7CE
:109490001CFA01215D483C30FEF70BFA01206249BD
:1094A000086000205F4908605E4800681E2839DBBC
:1094B0005D480068012835D100205949087048707E
:1094C000FF208870C870002008714871FF208871E3
:1094D000C871002008724872FF2088720020C8728C
:1094E00008734873FF2088730020C8734FF4E1307D
:1094F000FFF71DFF1020FFF775FF0122802147486D
:10950000FCF767FC102141483C30FEF7DEF90121F1
:109510003E483C30FEF7CDF9022043490860002068
:10952000404908603F48006840F6B831884222DB75
:109530003D48006802281ED1F020394908704FF4D8
:109540001650FFF7F4FE0120FFF74CFF01228021A7
:109550003248FCF73EFC01212C483C30FEF7B5F9BF
:1095600001212A483C30FEF7A4F903202E49086067
:1095700000202C4908602B4800681E283BDB2A4845
:109580000068032837D10020254908704870FF2063
:109590008870C870002008714871FF208871C871F8
:1095A00000200872FF2048728872C87208734873DE
:1095B00000208873FF20C8734FF4E130FFF7B7FE37
:1095C0001020FFF70FFF012280211448FCF701FC57
:1095D00010210E483C30FEF778F901210B483C3051
:1095E000FEF767F901201149086004200E49086060
:1095F00000200C4908600B4800681E2846DB0A481A
:10960000006815E0003801400501050044000240F3
:10961000D00A002074010020000C004800440040E3
:10962000FE0B00207801002080010020880100202E
:1096300004282BD1FF208049087048708870C870BA
:10964000087148718871C871087248728872C8724E
:10965000087348738873C8734FF4E130FFF767FEEF
:109660001020FFF7BFFE012280217448FCF7B1FBF8
:1096700010217348FEF729F901217148FEF719F905
:1096800005207049086000206F4908606E48006836
:10969000B0F5967F11DB6B48006805280DD10020DE
:1096A0006A4908606A4800686A4908600020684999
:1096B000086064490860644908606248006800EB1B
:1096C0008000400010BD10B563496448FCF7CBFB37
:1096D000A8B161496148FCF7EBFB6048FCF7BFFAB1
:1096E0005F49604A126888545E490968481CC1177E
:1096F00000EB11610912A0EB01215A4A11605A498D
:109700005648FCF7B0FB48B157495448FCF7D0FB2A
:109710004FF480714FF09040FDF7C3FB4FF4407160
:109720004E48FCF7C5FB51494C48FCF7C1FB50497A
:109730004A48FCF7BDFB4F494848FCF7B9FB10BD50
:1097400010B54FF40050FEF7EDF880B14FF48050A3
:10975000FEF7FBF800213A483C38FEF7AAF8002251
:1097600080213E48FCF735FB0120434908604FF457
:109770008050FEF7EAF810BD10B537492F48FCF7C6
:1097800072FBD0B134492D48FCF792FB2B48FCF713
:1097900066FA04462D48006878B1FF2C08D12C48A1
:1097A00000684FF4004141EA60002949086004E084
:1097B000274800684010264908602B491F48FCF7DD
:1097C00052FB18B128491D48FCF772FB4FF4407159
:1097D0001A48FCF76DFB25491848FCF769FB24493A
:1097E0001648FCF765FB23491448FCF761FB10BDE4
:1097F00010B54FF00070FEF795F860B14FF0807033
:10980000FEF7A3F800210E48FEF753F8002280214E
:109810000A48FCF7DEFA4FF08070FEF796F810BDAC
:1098200000F01F020121914042094FF0E02303EBB9
:109830008202C2F800117047FE0B00200044004075
:109840008000024080010020780100208801002073
:10985000840100207C010020050105000038014042
:10986000FE0A00206C010020060106000003030030
:10987000000302000003010074010020064C074DA4
:1098800006E0E06840F0010394E8070098471034D0
:10989000AC42F6D3FAF77CFC1C9900083C9900080E
:1098A00070B501EB020410F8015B15F0070301D15C
:1098B00010F8013B2A1106D110F8012B03E010F833
:1098C000016B01F8016B5B1EF9D12B0705D4002356
:1098D000521E0FD401F8013BFAE710F8013B02F1E8
:1098E0000202A1EB030303E013F8015B01F8015B43
:1098F000521EF9D5A142D6D3002070BD02E008C89F
:10990000121F08C1002AFAD170477047002001E0F9
:1099100001C1121F002AFBD1704700003C990008CA
:10992000000000208C010000A09800087499000835
:109930008C010020940E00000C99000801240233D1
:1099400001039A75750932D0793C2C020304042D69
:10995000060708094A1202120412061208120A1215
:109960000C1210122012404A8061ACA24A04344901
:0499700030011E00A4
:040000050800418925
:00000001FF
